{
  "_format": "hh-sol-artifact-1",
  "contractName": "MultiTokenTreasury",
  "sourceName": "contracts/treasury/MultiTokenTreasury.sol",
  "abi": [
    {
      "inputs": [
        {
          "internalType": "address",
          "name": "_owner",
          "type": "address"
        }
      ],
      "stateMutability": "nonpayable",
      "type": "constructor"
    },
    {
      "inputs": [],
      "name": "InsufficientLiquidity",
      "type": "error"
    },
    {
      "inputs": [],
      "name": "InvalidDenomination",
      "type": "error"
    },
    {
      "inputs": [],
      "name": "InvalidMerkleRoot",
      "type": "error"
    },
    {
      "inputs": [],
      "name": "InvalidSignature",
      "type": "error"
    },
    {
      "inputs": [],
      "name": "InvalidTokenConfig",
      "type": "error"
    },
    {
      "inputs": [],
      "name": "MerkleRootNotFound",
      "type": "error"
    },
    {
      "inputs": [],
      "name": "NullifierAlreadyUsed",
      "type": "error"
    },
    {
      "inputs": [],
      "name": "TokenNotSupported",
      "type": "error"
    },
    {
      "anonymous": false,
      "inputs": [
        {
          "indexed": true,
          "internalType": "address",
          "name": "token",
          "type": "address"
        },
        {
          "indexed": true,
          "internalType": "address",
          "name": "depositor",
          "type": "address"
        },
        {
          "indexed": false,
          "internalType": "uint256",
          "name": "amount",
          "type": "uint256"
        },
        {
          "indexed": false,
          "internalType": "bytes32",
          "name": "commitment",
          "type": "bytes32"
        }
      ],
      "name": "Deposit",
      "type": "event"
    },
    {
      "anonymous": false,
      "inputs": [
        {
          "indexed": true,
          "internalType": "address",
          "name": "token",
          "type": "address"
        },
        {
          "indexed": false,
          "internalType": "uint256",
          "name": "amount",
          "type": "uint256"
        }
      ],
      "name": "FeesWithdrawn",
      "type": "event"
    },
    {
      "anonymous": false,
      "inputs": [
        {
          "indexed": true,
          "internalType": "uint256",
          "name": "rootId",
          "type": "uint256"
        },
        {
          "indexed": false,
          "internalType": "bytes32",
          "name": "root",
          "type": "bytes32"
        },
        {
          "indexed": true,
          "internalType": "address",
          "name": "token",
          "type": "address"
        },
        {
          "indexed": false,
          "internalType": "uint256",
          "name": "denomination",
          "type": "uint256"
        },
        {
          "indexed": false,
          "internalType": "uint256",
          "name": "totalKeys",
          "type": "uint256"
        }
      ],
      "name": "MerkleRootAdded",
      "type": "event"
    },
    {
      "anonymous": false,
      "inputs": [
        {
          "indexed": true,
          "internalType": "uint256",
          "name": "rootId",
          "type": "uint256"
        }
      ],
      "name": "MerkleRootDeactivated",
      "type": "event"
    },
    {
      "anonymous": false,
      "inputs": [
        {
          "indexed": true,
          "internalType": "address",
          "name": "previousOwner",
          "type": "address"
        },
        {
          "indexed": true,
          "internalType": "address",
          "name": "newOwner",
          "type": "address"
        }
      ],
      "name": "OwnershipTransferred",
      "type": "event"
    },
    {
      "anonymous": false,
      "inputs": [
        {
          "indexed": false,
          "internalType": "address",
          "name": "account",
          "type": "address"
        }
      ],
      "name": "Paused",
      "type": "event"
    },
    {
      "anonymous": false,
      "inputs": [
        {
          "indexed": true,
          "internalType": "address",
          "name": "token",
          "type": "address"
        },
        {
          "indexed": false,
          "internalType": "string",
          "name": "symbol",
          "type": "string"
        },
        {
          "indexed": false,
          "internalType": "uint8",
          "name": "decimals",
          "type": "uint8"
        },
        {
          "indexed": false,
          "internalType": "uint256[]",
          "name": "denominations",
          "type": "uint256[]"
        }
      ],
      "name": "TokenAdded",
      "type": "event"
    },
    {
      "anonymous": false,
      "inputs": [
        {
          "indexed": true,
          "internalType": "address",
          "name": "token",
          "type": "address"
        }
      ],
      "name": "TokenRemoved",
      "type": "event"
    },
    {
      "anonymous": false,
      "inputs": [
        {
          "indexed": false,
          "internalType": "address",
          "name": "account",
          "type": "address"
        }
      ],
      "name": "Unpaused",
      "type": "event"
    },
    {
      "anonymous": false,
      "inputs": [
        {
          "indexed": true,
          "internalType": "address",
          "name": "token",
          "type": "address"
        },
        {
          "indexed": true,
          "internalType": "address",
          "name": "recipient",
          "type": "address"
        },
        {
          "indexed": false,
          "internalType": "uint256",
          "name": "amount",
          "type": "uint256"
        },
        {
          "indexed": false,
          "internalType": "bytes32",
          "name": "nullifierHash",
          "type": "bytes32"
        },
        {
          "indexed": false,
          "internalType": "uint256",
          "name": "fee",
          "type": "uint256"
        },
        {
          "indexed": false,
          "internalType": "uint256",
          "name": "merkleRootId",
          "type": "uint256"
        }
      ],
      "name": "Withdrawal",
      "type": "event"
    },
    {
      "inputs": [
        {
          "internalType": "bytes32",
          "name": "root",
          "type": "bytes32"
        },
        {
          "internalType": "address",
          "name": "token",
          "type": "address"
        },
        {
          "internalType": "uint256",
          "name": "denomination",
          "type": "uint256"
        },
        {
          "internalType": "uint256",
          "name": "totalKeys",
          "type": "uint256"
        }
      ],
      "name": "addMerkleRoot",
      "outputs": [],
      "stateMutability": "nonpayable",
      "type": "function"
    },
    {
      "inputs": [
        {
          "internalType": "address",
          "name": "token",
          "type": "address"
        },
        {
          "internalType": "string",
          "name": "symbol",
          "type": "string"
        },
        {
          "internalType": "uint8",
          "name": "decimals",
          "type": "uint8"
        },
        {
          "internalType": "uint256[]",
          "name": "denominations",
          "type": "uint256[]"
        }
      ],
      "name": "addToken",
      "outputs": [],
      "stateMutability": "nonpayable",
      "type": "function"
    },
    {
      "inputs": [
        {
          "internalType": "bytes32[]",
          "name": "nullifierHashes",
          "type": "bytes32[]"
        }
      ],
      "name": "checkNullifiers",
      "outputs": [
        {
          "internalType": "bool[]",
          "name": "",
          "type": "bool[]"
        }
      ],
      "stateMutability": "view",
      "type": "function"
    },
    {
      "inputs": [
        {
          "internalType": "uint256",
          "name": "rootId",
          "type": "uint256"
        }
      ],
      "name": "deactivateMerkleRoot",
      "outputs": [],
      "stateMutability": "nonpayable",
      "type": "function"
    },
    {
      "inputs": [
        {
          "internalType": "address",
          "name": "token",
          "type": "address"
        },
        {
          "internalType": "uint256",
          "name": "amount",
          "type": "uint256"
        }
      ],
      "name": "deposit",
      "outputs": [],
      "stateMutability": "payable",
      "type": "function"
    },
    {
      "inputs": [
        {
          "internalType": "address",
          "name": "token",
          "type": "address"
        },
        {
          "internalType": "uint256",
          "name": "amount",
          "type": "uint256"
        }
      ],
      "name": "emergencyWithdraw",
      "outputs": [],
      "stateMutability": "nonpayable",
      "type": "function"
    },
    {
      "inputs": [
        {
          "internalType": "uint256",
          "name": "offset",
          "type": "uint256"
        },
        {
          "internalType": "uint256",
          "name": "limit",
          "type": "uint256"
        }
      ],
      "name": "getActiveMerkleRoots",
      "outputs": [
        {
          "components": [
            {
              "internalType": "bytes32",
              "name": "root",
              "type": "bytes32"
            },
            {
              "internalType": "address",
              "name": "token",
              "type": "address"
            },
            {
              "internalType": "uint256",
              "name": "denomination",
              "type": "uint256"
            },
            {
              "internalType": "uint256",
              "name": "timestamp",
              "type": "uint256"
            },
            {
              "internalType": "bool",
              "name": "isActive",
              "type": "bool"
            },
            {
              "internalType": "uint256",
              "name": "totalKeys",
              "type": "uint256"
            },
            {
              "internalType": "uint256",
              "name": "usedKeys",
              "type": "uint256"
            }
          ],
          "internalType": "struct MultiTokenTreasury.MerkleRootInfo[]",
          "name": "roots",
          "type": "tuple[]"
        },
        {
          "internalType": "uint256",
          "name": "total",
          "type": "uint256"
        }
      ],
      "stateMutability": "view",
      "type": "function"
    },
    {
      "inputs": [
        {
          "internalType": "bytes32",
          "name": "rootHash",
          "type": "bytes32"
        }
      ],
      "name": "getMerkleRootIdByHash",
      "outputs": [
        {
          "internalType": "bool",
          "name": "found",
          "type": "bool"
        },
        {
          "internalType": "uint256",
          "name": "rootId",
          "type": "uint256"
        }
      ],
      "stateMutability": "view",
      "type": "function"
    },
    {
      "inputs": [
        {
          "internalType": "address",
          "name": "token",
          "type": "address"
        },
        {
          "internalType": "uint256",
          "name": "denomination",
          "type": "uint256"
        }
      ],
      "name": "getMerkleRootsByTokenAndDenomination",
      "outputs": [
        {
          "internalType": "uint256[]",
          "name": "roots",
          "type": "uint256[]"
        }
      ],
      "stateMutability": "view",
      "type": "function"
    },
    {
      "inputs": [],
      "name": "getMerkleRootsCount",
      "outputs": [
        {
          "internalType": "uint256",
          "name": "",
          "type": "uint256"
        }
      ],
      "stateMutability": "view",
      "type": "function"
    },
    {
      "inputs": [],
      "name": "getSupportedTokens",
      "outputs": [
        {
          "internalType": "address[]",
          "name": "tokens",
          "type": "address[]"
        },
        {
          "internalType": "string[]",
          "name": "symbols",
          "type": "string[]"
        },
        {
          "internalType": "uint8[]",
          "name": "decimals",
          "type": "uint8[]"
        },
        {
          "internalType": "bool[]",
          "name": "active",
          "type": "bool[]"
        }
      ],
      "stateMutability": "view",
      "type": "function"
    },
    {
      "inputs": [
        {
          "internalType": "address",
          "name": "token",
          "type": "address"
        }
      ],
      "name": "getTokenDenominations",
      "outputs": [
        {
          "internalType": "uint256[]",
          "name": "",
          "type": "uint256[]"
        }
      ],
      "stateMutability": "view",
      "type": "function"
    },
    {
      "inputs": [
        {
          "internalType": "address",
          "name": "token",
          "type": "address"
        }
      ],
      "name": "getTokenStats",
      "outputs": [
        {
          "internalType": "uint256",
          "name": "deposited",
          "type": "uint256"
        },
        {
          "internalType": "uint256",
          "name": "withdrawn",
          "type": "uint256"
        },
        {
          "internalType": "uint256",
          "name": "balance",
          "type": "uint256"
        },
        {
          "internalType": "uint256",
          "name": "fees",
          "type": "uint256"
        }
      ],
      "stateMutability": "view",
      "type": "function"
    },
    {
      "inputs": [
        {
          "internalType": "address",
          "name": "token",
          "type": "address"
        }
      ],
      "name": "getWithdrawalCapacity",
      "outputs": [
        {
          "internalType": "uint256",
          "name": "available",
          "type": "uint256"
        },
        {
          "internalType": "uint256",
          "name": "percentAvailable",
          "type": "uint256"
        }
      ],
      "stateMutability": "view",
      "type": "function"
    },
    {
      "inputs": [
        {
          "internalType": "address",
          "name": "token",
          "type": "address"
        },
        {
          "internalType": "uint256",
          "name": "amount",
          "type": "uint256"
        }
      ],
      "name": "isValidDenomination",
      "outputs": [
        {
          "internalType": "bool",
          "name": "",
          "type": "bool"
        }
      ],
      "stateMutability": "view",
      "type": "function"
    },
    {
      "inputs": [
        {
          "internalType": "bytes32",
          "name": "",
          "type": "bytes32"
        }
      ],
      "name": "merkleRootToId",
      "outputs": [
        {
          "internalType": "uint256",
          "name": "",
          "type": "uint256"
        }
      ],
      "stateMutability": "view",
      "type": "function"
    },
    {
      "inputs": [
        {
          "internalType": "uint256",
          "name": "",
          "type": "uint256"
        }
      ],
      "name": "merkleRoots",
      "outputs": [
        {
          "internalType": "bytes32",
          "name": "root",
          "type": "bytes32"
        },
        {
          "internalType": "address",
          "name": "token",
          "type": "address"
        },
        {
          "internalType": "uint256",
          "name": "denomination",
          "type": "uint256"
        },
        {
          "internalType": "uint256",
          "name": "timestamp",
          "type": "uint256"
        },
        {
          "internalType": "bool",
          "name": "isActive",
          "type": "bool"
        },
        {
          "internalType": "uint256",
          "name": "totalKeys",
          "type": "uint256"
        },
        {
          "internalType": "uint256",
          "name": "usedKeys",
          "type": "uint256"
        }
      ],
      "stateMutability": "view",
      "type": "function"
    },
    {
      "inputs": [
        {
          "internalType": "bytes32",
          "name": "",
          "type": "bytes32"
        }
      ],
      "name": "nullifiers",
      "outputs": [
        {
          "internalType": "bool",
          "name": "",
          "type": "bool"
        }
      ],
      "stateMutability": "view",
      "type": "function"
    },
    {
      "inputs": [],
      "name": "owner",
      "outputs": [
        {
          "internalType": "address",
          "name": "",
          "type": "address"
        }
      ],
      "stateMutability": "view",
      "type": "function"
    },
    {
      "inputs": [],
      "name": "pause",
      "outputs": [],
      "stateMutability": "nonpayable",
      "type": "function"
    },
    {
      "inputs": [],
      "name": "paused",
      "outputs": [
        {
          "internalType": "bool",
          "name": "",
          "type": "bool"
        }
      ],
      "stateMutability": "view",
      "type": "function"
    },
    {
      "inputs": [
        {
          "internalType": "address",
          "name": "token",
          "type": "address"
        }
      ],
      "name": "removeToken",
      "outputs": [],
      "stateMutability": "nonpayable",
      "type": "function"
    },
    {
      "inputs": [],
      "name": "renounceOwnership",
      "outputs": [],
      "stateMutability": "nonpayable",
      "type": "function"
    },
    {
      "inputs": [
        {
          "internalType": "uint256",
          "name": "",
          "type": "uint256"
        }
      ],
      "name": "supportedTokens",
      "outputs": [
        {
          "internalType": "address",
          "name": "",
          "type": "address"
        }
      ],
      "stateMutability": "view",
      "type": "function"
    },
    {
      "inputs": [
        {
          "internalType": "address",
          "name": "",
          "type": "address"
        }
      ],
      "name": "tokenInfo",
      "outputs": [
        {
          "internalType": "string",
          "name": "symbol",
          "type": "string"
        },
        {
          "internalType": "uint8",
          "name": "decimals",
          "type": "uint8"
        },
        {
          "internalType": "bool",
          "name": "isActive",
          "type": "bool"
        }
      ],
      "stateMutability": "view",
      "type": "function"
    },
    {
      "inputs": [
        {
          "internalType": "address",
          "name": "",
          "type": "address"
        }
      ],
      "name": "totalDeposited",
      "outputs": [
        {
          "internalType": "uint256",
          "name": "",
          "type": "uint256"
        }
      ],
      "stateMutability": "view",
      "type": "function"
    },
    {
      "inputs": [
        {
          "internalType": "address",
          "name": "",
          "type": "address"
        }
      ],
      "name": "totalFeesCollected",
      "outputs": [
        {
          "internalType": "uint256",
          "name": "",
          "type": "uint256"
        }
      ],
      "stateMutability": "view",
      "type": "function"
    },
    {
      "inputs": [
        {
          "internalType": "address",
          "name": "",
          "type": "address"
        }
      ],
      "name": "totalWithdrawn",
      "outputs": [
        {
          "internalType": "uint256",
          "name": "",
          "type": "uint256"
        }
      ],
      "stateMutability": "view",
      "type": "function"
    },
    {
      "inputs": [
        {
          "internalType": "address",
          "name": "newOwner",
          "type": "address"
        }
      ],
      "name": "transferOwnership",
      "outputs": [],
      "stateMutability": "nonpayable",
      "type": "function"
    },
    {
      "inputs": [],
      "name": "unpause",
      "outputs": [],
      "stateMutability": "nonpayable",
      "type": "function"
    },
    {
      "inputs": [
        {
          "internalType": "address",
          "name": "token",
          "type": "address"
        },
        {
          "internalType": "uint256[]",
          "name": "newDenominations",
          "type": "uint256[]"
        }
      ],
      "name": "updateDenominations",
      "outputs": [],
      "stateMutability": "nonpayable",
      "type": "function"
    },
    {
      "inputs": [
        {
          "internalType": "address",
          "name": "token",
          "type": "address"
        },
        {
          "internalType": "address payable",
          "name": "recipient",
          "type": "address"
        },
        {
          "internalType": "uint256",
          "name": "amount",
          "type": "uint256"
        },
        {
          "internalType": "uint256",
          "name": "merkleRootId",
          "type": "uint256"
        },
        {
          "internalType": "bytes",
          "name": "signature",
          "type": "bytes"
        },
        {
          "internalType": "bytes32[]",
          "name": "merkleProof",
          "type": "bytes32[]"
        },
        {
          "internalType": "uint256",
          "name": "keyIndex",
          "type": "uint256"
        }
      ],
      "name": "withdraw",
      "outputs": [],
      "stateMutability": "nonpayable",
      "type": "function"
    },
    {
      "inputs": [
        {
          "internalType": "address",
          "name": "token",
          "type": "address"
        }
      ],
      "name": "withdrawFees",
      "outputs": [],
      "stateMutability": "nonpayable",
      "type": "function"
    },
    {
      "stateMutability": "payable",
      "type": "receive"
    }
  ],
  "bytecode": "0x6080346200051857601f620036b438819003918201601f19168301916001600160401b0383118484101762000383578084926020946040528339810103126200051857516001600160a01b038116810362000518576200007890620000643362000532565b6001805560ff196002541660025562000532565b60405160a081016001600160401b0381118282101762000383576040526004815260803660208301378051156200050257662386f26fc100006020820152805160011015620005025767016345785d8a0000604082015280516002101562000502576706f05b59d3b2000060608201528051600310156200050257670de0b6b3a7640000608082015260408051919082016001600160401b038111838210176200038357604052600382526208aa8960eb1b60208301526200013a81620005d4565b15620004f057604051608081016001600160401b03811182821017620003835760405282815260126020820152600160408201528160608201526000805260036020526040600020815180519060018060401b03821162000383578254600181811c91168015620004e5575b6020821014620004cf57601f81116200048d575b50602090601f831160011462000419579180606094926002946000926200040d575b50508160011b916000199060031b1c19161781555b6001810160ff60208601511681549061ff006040880151151560081b169161ffff191617179055019101519081519060018060401b0382116200038357680100000000000000009283831162000383576020908254848455808510620003ed575b500190600052602060002060005b838110620003d85750505050600090600091600454925b83811062000399575b50156200034e575b5050604051916060835280519081606085015260005b82811062000337575050600060808285010152601f80199101168201602060a06080830192601283870152608086820301604087015284518094520192019060005b818110620003205760007f0bb5b396beb5f05ba121e866f946d455c53e0dacd56c4b77181445c1702e338386860387a260405161302690816200068e8239f35b8251845260209384019390920191600101620002e0565b80602080928401015160808288010152016200029e565b8110156200038357806001620003689201600455620005b8565b81549060018060a01b039060031b1b19169055388062000288565b634e487b7160e01b600052604160045260246000fd5b620003a481620005b8565b905460039190911b1c6001600160a01b031615620003cd57620003c79062000592565b62000277565b505060013862000280565b60019060208451940193818401550162000260565b6200040690846000528584600020918201910162000579565b3862000252565b015190503880620001dc565b908360005260206000209160005b601f1985168110620004745750926060949260019260029583601f198116106200045a575b505050811b018155620001f1565b015160001960f88460031b161c191690553880806200044c565b9192602060018192868501518155019401920162000427565b620004bd90846000526020600020601f850160051c81019160208610620004c4575b601f0160051c019062000579565b38620001ba565b9091508190620004af565b634e487b7160e01b600052602260045260246000fd5b90607f1690620001a6565b6040516303ff3dd760e11b8152600490fd5b634e487b7160e01b600052603260045260246000fd5b600080fd5b8051821015620005025760209160051b010190565b600080546001600160a01b039283166001600160a01b03198216811783559216907f8be0079c531659141344cd1fd0a4f28419497f9722a3daafe3b4186f6b6457e09080a3565b81811062000585575050565b6000815560010162000579565b6000198114620005a25760010190565b634e487b7160e01b600052601160045260246000fd5b6004548110156200050257600460005260206000200190600090565b805115620006875760005b81518110156200068057620005f581836200051d565b511562000679576001808201808311620005a257815b62000624575b50506200061e9062000592565b620005df565b83919293518110156200066f576200063d84836200051d565b516200064a82846200051d565b511462000666576200065c9062000592565b829193926200060b565b50505050600090565b8193925062000611565b5050600090565b5050600190565b5060009056fe6080604052600436101561001b575b361561001957600080fd5b005b60e0600035811c908163011eb976146121cd5781630a64143a146121935781630d0bd8d4146121675781630e20799f14612105578163164e68de14611fd95781632997e86b14611fa85781632dccb16014611f715781632f48910514611a025781633b3cc7f91461189a5781633f4ba83a146118435781634526d25b146117aa57816347e650e6146114a257816347e7ef24146111fe57816353055481146111c45781635c975abb146111a15781635fa7b58414611107578163715018a6146110c057816371c5ecb1146110415750806372379bd114610d8e5780637a26c4eb14610cac5780638456cb5914610c5257806388a40eed14610c185780638da5cb5b14610bef57806395ccea6714610b33578063c625562614610af1578063ca88d5c514610a81578063cc1f5efb14610a63578063d3c7c2c714610800578063decc487e1461037d578063e18342d014610351578063e6dddb6d146102bf578063f2fde38b146102105763f5dab7110361000e573461020b57602036600319011261020b576001600160a01b036101af612467565b1660005260036020526101f360406000206001604051916101db836101d4818461271f565b03846124e9565b015460ff6040519384936060855260608501906126a5565b91818116602085015260081c16151560408301520390f35b600080fd5b3461020b57602036600319011261020b57610229612467565b6102316127b5565b6001600160a01b0390811690811561026b576000548260018060a01b031982161760005516600080516020612fd1833981519152600080a3005b60405162461bcd60e51b815260206004820152602660248201527f4f776e61626c653a206e6577206f776e657220697320746865207a65726f206160448201526564647265737360d01b6064820152608490fd5b3461020b5760208060031936011261020b576001600160a01b036102e1612467565b1660005260038152600260406000200190604051808383829554938481520190600052836000209260005b8582821061033b57505050610323925003836124e9565b61033760405192828493845283019061255e565b0390f35b855484526001958601958895509301920161030c565b3461020b57602036600319011261020b5760043560005260066020526020604060002054604051908152f35b3461020b57608036600319011261020b57610396612467565b6024356001600160401b03811161020b573660238201121561020b576103c6903690602481600401359101612527565b6044359060ff8216820361020b576064356001600160401b03811161020b576103f39036906004016125a9565b926103fc6127b5565b61040584612ef4565b156107ee576001600160a01b038116610733575b604051608081016001600160401b038111828210176105f85760405282815260ff841660208201526001604082015284606082015260018060a01b0382166000526003602052604060002090805180519060018060401b0382116105f85761048184546126e5565b601f81116106f6575b50602090601f83116001146106895760609392916000918361067e575b50508160011b916000199060031b1c19161783555b6001830160ff60208301511681549061ff006040850151151560081b169161ffff19161717905501519081519160018060401b0383116105f857600160401b83116105f857602060029182840154858486015580861061065f575b50019101600052602060002060005b83811061064b5750505050600080600454915b82811061060e575b501561059a575b5090610595600080516020612f91833981519152936105779360ff6040519586956060875260608701906126a5565b9216602085015283820360408501526001600160a01b03169561255e565b0390a2005b909190600160401b8110156105f857600080516020612f9183398151915293610577936105d08360016105959501600455612672565b81546001600160a01b0384811660039390931b92831b921b1916179055909450919250610548565b634e487b7160e01b600052604160045260246000fd5b61061781612672565b905460039190911b1c6001600160a01b03908116908516146106415761063c90612824565b610539565b5050600186610541565b600190602084519401938184015501610526565b610678908486016000528684600020918201910161280d565b89610517565b0151905089806104a7565b908460005260206000209160005b601f19851681106106de575091839160019360609695601f198116106106c5575b505050811b0183556104bc565b015160001960f88460031b161c191690558980806106b8565b91926020600181928685015181550194019201610697565b61072390856000526020600020601f850160051c81019160208610610729575b601f0160051c019061280d565b8861048a565b9091508190610716565b60405163313ce56760e01b81526020816004816001600160a01b0386165afa9081156107e2576000916107a7575b5060ff808516911603156104195760405162461bcd60e51b815260206004820152601060248201526f088cac6d2dac2d840dad2e6dac2e8c6d60831b6044820152606490fd5b90506020813d82116107da575b816107c1602093836124e9565b8101031261020b575160ff8116810361020b5785610761565b3d91506107b4565b6040513d6000823e3d90fd5b6040516303ff3dd760e11b8152600490fd5b3461020b57600036600319011261020b5760045461081d81612592565b61082a60405191826124e9565b81815261083682612592565b9060209182820193601f1980920136863761085081612592565b61085d60405191826124e9565b8181528261086a83612592565b0160005b818110610a5457505061088082612592565b61088d60405191826124e9565b82815261089983612592565b938087830195013686376108ac84612854565b9360005b8181106109af5750506040519788966080880190608089525180915260a08801919060005b81811061098f575050508681038888015283519081815288810189808460051b8401019601936000925b8484106109565750505050505085908583036040870152519182815201929460005b82811061093c5785806103378787838203606085015261263c565b865160ff1685529581019587955093810193600101610921565b919395968b80999b50610979828460019597999d9f948790030188528c516126a5565b9a0194019401918b99979a9896959394916108ff565b82516001600160a01b031684528b9950928a0192918a01916001016108d5565b806001896109c7610a47949d97989a9c999b9d612672565b905490600391848060a01b0391831b1c1690816000528a526109ee84604060002093612833565b52604051610a0781610a00818561271f565b03826124e9565b610a11848c612833565b52610a1c838b612833565b50015460ff808216610a2e848a612833565b52610a39838c612833565b9160081c1615159052612824565b98969497959392986108b0565b6060838201880152860161086e565b3461020b57600036600319011261020b576020600554604051908152f35b3461020b57602036600319011261020b576080610a9c612467565b60018060a01b03811690816000526008602052604060002054916009602052610aca60406000205492612e80565b90600052600a60205260406000205491604051938452602084015260408301526060820152f35b3461020b57602036600319011261020b5760043560045481101561020b57610b1a602091612672565b905460405160039290921b1c6001600160a01b03168152f35b3461020b57604036600319011261020b57610b4c612467565b60243590610b586127b5565b610b60612c45565b6001600160a01b0390811680610b8e5750600080806100199481948254165af1610b88612bd3565b50612c03565b91610bb89260209260005416600060405180968195829463a9059cbb60e01b845260048401612bb8565b03925af180156107e257610bc857005b6100199060203d8111610be8575b610be081836124e9565b810190612ba0565b503d610bd6565b3461020b57600036600319011261020b576000546040516001600160a01b039091168152602090f35b3461020b57602036600319011261020b576001600160a01b03610c39612467565b16600052600a6020526020604060002054604051908152f35b3461020b57600036600319011261020b57610c6b6127b5565b610c73612893565b600160ff1960025416176002557f62e78cea01bee320cd4e420270b5ea74000d11b0c9f74754ebdbfc544b05a2586020604051338152a1005b3461020b5760208060031936011261020b576004356001600160401b03811161020b573660238201121561020b578060040135610ce881612592565b91610cf660405193846124e9565b81835260248484019260051b8201019136831161020b576024859201905b838210610d7f578285610d278151612854565b9160005b8251811015610d6c5780610d42610d679285612833565b516000526007835260ff60406000205416610d5d8287612833565b9015159052612824565b610d2b565b604051828152806103378185018761263c565b81358152908201908201610d14565b3461020b57608036600319011261020b576001600160a01b0360248035828116926004359184900361020b576044803590606494853593610dcd6127b5565b60055496808810156110095760005b888110610fac57508860005260209360038552604060002060ff600182015460081c1615610f755786610e0e91612c8e565b15610f3557505060405190610e228261247d565b86825283820189815260408301868152606084019042825260808501926001845260a08601948a865260c0870196600088528d600160401b1115610f2057610e708e60018101600555612607565b999099610f0c5750926006959260609c9a9895927fd7d06387b28a46fbcb4300431eb1fc44e4dbec163e13e4f60d22b505f788ece89e9c9a98955189556001890191511660018060a01b0319825416179055516002870155516003860155600485019051151560ff80198354169116179055516005840155519101558360005260068152866040600020556040519384528301526040820152a3005b634e487b7160e01b60005260006004526000fd5b88634e487b7160e01b60005260416004526000fd5b7f496e76616c69642064656e6f6d696e6174696f6e20666f7220746f6b656e00008591601e866040519462461bcd60e51b86526004860152840152820152fd5b5072151bdad95b881b9bdd081cdd5c1c1bdc9d1959606a1b85916013866040519462461bcd60e51b86526004860152840152820152fd5b87610fb682612607565b505414610fcb57610fc690612824565b610ddc565b5060405162461bcd60e51b815260206004820152601a81850152794d65726b6c6520726f6f7420616c72656164792065786973747360301b81860152fd5b60405162461bcd60e51b81526020600482015260158185015274546f6f206d616e79206d65726b6c6520726f6f747360581b81860152fd5b3461020b57602036600319011261020b5760043560055481101561020b5761106890612607565b5080549060018060a01b03600182015416906002810154600382015460ff6004840154169160066005850154940154946040519687526020870152604086015260608501521515608084015260a083015260c0820152f35b3461020b57600036600319011261020b576110d96127b5565b600080546001600160a01b0319811682556001600160a01b0316600080516020612fd18339815191528280a3005b3461020b57602036600319011261020b57611120612467565b6111286127b5565b6001600160a01b031660008181526003602052604090206001015460081c60ff161561118f57806000526003602052600160406000200161ff001981541690557f4c910b69fe65a61f7531b9c5042b2329ca7179c77290aa7e2eb3afa3c8511fd3600080a2005b604051633dd1b30560e01b8152600490fd5b3461020b57600036600319011261020b57602060ff600254166040519015158152f35b3461020b57602036600319011261020b576001600160a01b036111e5612467565b1660005260086020526020604060002054604051908152f35b604036600319011261020b57611212612467565b602491823590611220612893565b6001600160a01b038316600081815260036020818152604090922060018101549396929360081c60ff161561118f57600201908154908115611467578260005284600020549260015b83811061142557505050508410611413578461139257833403611357575b8460005260088252604060002061129f858254612847565b9055600019430143811161134257604051928301913360601b835260018060601b03199060601b1660348401528460488401524260688401524060888301526088825260c082019582871060018060401b0388111761132e5750856040528151902092855201527f76bb911c362d5b1feb3058bc7dc9354703e4b6eb9c61cc845f73da880cf62f6160403393a3005b634e487b7160e01b60009081526041600452fd5b86634e487b7160e01b60005260116004526000fd5b60405162461bcd60e51b81526004810183905260148188015273125b98dbdc9c9958dd0811551208185b5bdd5b9d60621b6044820152606490fd5b346113d2576113cd6040516323b872dd60e01b848201523388820152306044820152856064820152606481526113c7816124b3565b86612cfd565b611287565b60405162461bcd60e51b815260048101839052601a8188015279115512081cd95b9d08199bdc881d1bdad95b8819195c1bdcda5d60321b6044820152606490fd5b604051637833d9e360e11b8152600490fd5b84611430828461268d565b905490851b1c1061144a575b61144590612824565b611269565b9350611445611459858361268d565b905490841b1c94905061143c565b60405162461bcd60e51b8152600481018690526014818b015273139bc819195b9bdb5a5b985d1a5bdb9cc81cd95d60621b6044820152606490fd5b3461020b57604036600319011261020b576114bb612467565b6001600160401b039060243582811161020b576114dc9036906004016125a9565b906114e56127b5565b60018060a01b03169182600052600390602082815260019160ff836040600020015460081c161561118f5761151985612ef4565b156107ee57856000528382528260406000209560009560009660028901978854945b611722575b50806115be575b50505050509060ff81850154166115696040519560608752606087019061271f565b9083860152848103604086015282845491828152019360005282600020926000905b8282106115a95787600080516020612f9183398151915288880389a2005b8454865294850194938301939083019061158b565b6115cb6115d09185612847565b612854565b9160005b8481106116ff575083916000885b611651575b5050505080519283116105f857600160401b83116105f8578391838755808410611634575b500184600052826000208460005b84811015611547578584519401938184015501859061161a565b61164b90876000528484600020918201910161280d565b8861160c565b82518110156116fa5790889392916000805b8c8982106116aa575b50509061167d911561168657612824565b909192936115e2565b6116908185612833565b516116a461169d87612824565b9689612833565b52612824565b816116bc91989293949596979861268d565b905490861b1c6116cc8588612833565b51146116e857506116dc90612824565b908a9594939291611663565b95949392915085905061167d8c61166c565b6115e7565b8061170d61171d928b61268d565b905490851b1c6116a48287612833565b6115d4565b83518110156117a55787906000805b878110611764575b501561174f575b61174990612824565b9061153b565b9161175c61174991612824565b929050611740565b909192611771828d61268d565b905490871b1c6117818589612833565b511461179a575061179190612824565b90899291611731565b92915050818d611739565b611540565b3461020b57602036600319011261020b576004356117c66127b5565b60055481101561180c5760046117db82612607565b5001805460ff191690557f6a78c0f3eb0b7c8b663ac4293ce924242c5fe0605bf7fe291219b5884dfdd588600080a2005b60405162461bcd60e51b815260206004820152600f60248201526e125b9d985b1a59081c9bdbdd081251608a1b6044820152606490fd5b3461020b57600036600319011261020b5761185c6127b5565b611864612c45565b60ff19600254166002557f5db9ee0a495bf2e6ff9c91a7834c1ba4fdd244a5e8aa4e537bd38aeae4b073aa6020604051338152a1005b3461020b57604036600319011261020b576118b3612467565b6005546024356000805b83811061198557506118ce81612854565b9160009160005b8581108061197c575b156119665760ff60046118f083612607565b5001541680611944575b8061192e575b611913575b61190e90612824565b6118d5565b9261192681856116a461190e9489612833565b939050611905565b5082600261193b83612607565b50015414611900565b50600161195082612607565b50818060a01b03918291015416908816146118fa565b604051602080825281906103379082018861255e565b508184106118de565b60ff600461199283612607565b50015416806119e0575b806119ca575b6119b5575b6119b090612824565b6118bd565b906119c26119b091612824565b9190506119a7565b508260026119d783612607565b500154146119a2565b5060016119ec82612607565b50818060a01b039182910154169086161461199c565b3461020b5736600319011261020b57611a19612467565b6001600160a01b03602435808216900361020b576001600160401b039060843582811161020b573660238201121561020b57611a5f903690602481600401359101612527565b918060a4351161020b5736602360a43501121561020b5760a435600401351161020b5736602460a4356004013560051b60a43501011161020b57600260015414611f2c576002600155611ab0612893565b8083166000526003602052604060002060ff600182015460081c161561118f57611add9060443590612c8e565b15611413576005546064351015611f1a57611af9606435612607565b5060ff60048201541615611f1a578184168260018301541603611ed857604435600282015403611e8957611b2c84612e80565b848316611e805767016345785d8a0000604435018060443511611d8d57905b10611e6e576040516020810190606435825260c435604082015260408152611b7281612498565b5190209283600052600760205260ff60406000205416611e5c57611c0f90611c07604051916020830160018060601b0319938460243560601b168252848a60601b166034820152604435604882015246606882015260688152611bd4816124b3565b5190207b0ca2ba3432b932bab69029b4b3b732b21026b2b9b9b0b3b29d05199960211b600052601c52603c6000206129ec565b9290926128d7565b60405190602082019260601b16825260148152611c2b816124ce565b51902081549060c43560005b60a435600401358110611de757505003611dab576006908360005260076020526040600020600160ff1982541617905501611c728154612824565b90556000818416611da3575b604435808202918115918304141715611d8d577f4dd14a1ba4ada6d6871b62ffa4e5c1c3339efac4939d2e2390b6f6618981aaaf9161271060809204611cc681604435612886565b9482871660005260096020526040600020611ce46044358254612847565b9055828716600052600a6020526040600020611d01838254612847565b9055868316611d4957611d2260008080808a88602435165af1610b88612bd3565b6040519586526020860152604085015260643560608501528060243516941692a360018055005b611d8860405163a9059cbb60e01b6020820152611d8081611d728a886024351660248401612bb8565b03601f1981018352826124e9565b848916612cfd565b611d22565b634e487b7160e01b600052601160045260246000fd5b50600a611c7e565b60405162461bcd60e51b815260206004820152601460248201527324b73b30b634b21036b2b935b63290383937b7b360611b6044820152606490fd5b9091611e309060248360051b60a4350101356001851615600014611e35576040519060208201928352604082015260408152611e2281612498565b519020925b60011c91612824565b611c37565b906040519060208201928352604082015260408152611e5381612498565b51902092611e27565b604051636569570160e11b8152600490fd5b60405163bb55fd2760e01b8152600490fd5b60443590611b4b565b60405162461bcd60e51b815260206004820152602160248201527f4d65726b6c6520726f6f742064656e6f6d696e6174696f6e206d69736d6174636044820152600d60fb1b6064820152608490fd5b60405162461bcd60e51b815260206004820152601a60248201527909acae4d6d8ca40e4dedee840e8ded6cadc40dad2e6dac2e8c6d60331b6044820152606490fd5b604051639dd854d360e01b8152600490fd5b60405162461bcd60e51b815260206004820152601f60248201527f5265656e7472616e637947756172643a207265656e7472616e742063616c6c006044820152606490fd5b3461020b57602036600319011261020b576040611f9c611f97611f92612467565b612e80565b612b09565b82519182526020820152f35b3461020b57602036600319011261020b576004356000526007602052602060ff604060002054166040519015158152f35b3461020b5760208060031936011261020b57611ff3612467565b611ffb6127b5565b6001600160a01b039081166000818152600a8452604090205490929080156120ca576000848152600a835260408120558361205f57612056600080808085600080516020612fb1833981519152988254165af1610b88612bd3565b604051908152a2005b81816120849460005416604051958692839263a9059cbb60e01b845260048401612bb8565b03816000885af19283156107e257600080516020612fb1833981519152936120ad575b50612056565b6120c390833d8511610be857610be081836124e9565b50846120a7565b60405162461bcd60e51b81526004810183905260136024820152724e6f206665657320746f20776974686472617760681b6044820152606490fd5b3461020b57604036600319011261020b576001600160a01b03612126612467565b1660005260036020526020604060002060ff600182015460081c169081612153575b506040519015158152f35b612161915060243590612c8e565b82612148565b3461020b57602036600319011261020b576040612185600435612aa9565b825191151582526020820152f35b3461020b57602036600319011261020b576001600160a01b036121b4612467565b1660005260096020526020604060002054604051908152f35b3461020b57604036600319011261020b57600580549091600435906000602435815b85811061242e5750816122028286612847565b1161240f575b61221181612592565b9161221f60405193846124e9565b818352601f1961222e83612592565b0160005b8181106123c757505060009360009260005b888110806123be575b1561232c57600461225d82612607565b50015460ff908116612279575b5061227490612824565b612244565b8a89899399101561229a575b505061229361227491612824565b969061226a565b6122749296612293926006612323936122b28d612607565b5090604051936122c18561247d565b8254855260018301546001600160a01b0316602086015260028301546040860152600383015460608601526004830154161515608085015281015460a0840152015460c0820152612312828b612833565b5261231d818a612833565b50612824565b9591508a612285565b604080518181528751918101829052606091828201908790602090818c019060008a5b8282106123625787808888888301520390f35b835180518852808601516001600160a01b03168689015260408082015190890152898101518a89015260808082015115159089015260a0808201519089015260c09081015190880152958601959284019260019091019061234f565b5081851061224d565b6020906040516123d68161247d565b6000815282600081830152600060408301526000606083015260006080830152600060a0830152600060c0830152828801015201612232565b5082811115612427576124228382612886565b612208565b6000612208565b60ff600461243b83612607565b50015416612452575b61244d90612824565b6121ef565b9161245f61244d91612824565b929050612444565b600435906001600160a01b038216820361020b57565b60e081019081106001600160401b038211176105f857604052565b606081019081106001600160401b038211176105f857604052565b60a081019081106001600160401b038211176105f857604052565b604081019081106001600160401b038211176105f857604052565b601f909101601f19168101906001600160401b038211908210176105f857604052565b6001600160401b0381116105f857601f01601f191660200190565b9291926125338261250c565b9161254160405193846124e9565b82948184528183011161020b578281602093846000960137010152565b90815180825260208080930193019160005b82811061257e575050505090565b835185529381019392810192600101612570565b6001600160401b0381116105f85760051b60200190565b81601f8201121561020b578035916125c083612592565b926125ce60405194856124e9565b808452602092838086019260051b82010192831161020b578301905b8282106125f8575050505090565b813581529083019083016125ea565b6005548110156126265760056000526007602060002091020190600090565b634e487b7160e01b600052603260045260246000fd5b90815180825260208080930193019160005b82811061265c575050505090565b835115158552938101939281019260010161264e565b60045481101561262657600460005260206000200190600090565b80548210156126265760005260206000200190600090565b919082519283825260005b8481106126d1575050826000602080949584010152601f8019910116010190565b6020818301810151848301820152016126b0565b90600182811c92168015612715575b60208310146126ff57565b634e487b7160e01b600052602260045260246000fd5b91607f16916126f4565b9060009291805491612730836126e5565b9182825260019384811690816000146127925750600114612752575b50505050565b90919394506000526020928360002092846000945b83861061277e57505050500101903880808061274c565b805485870183015294019385908201612767565b9294505050602093945060ff191683830152151560051b0101903880808061274c565b6000546001600160a01b031633036127c957565b606460405162461bcd60e51b815260206004820152602060248201527f4f776e61626c653a2063616c6c6572206973206e6f7420746865206f776e65726044820152fd5b818110612818575050565b6000815560010161280d565b6000198114611d8d5760010190565b80518210156126265760209160051b010190565b91908201809211611d8d57565b9061285e82612592565b61286b60405191826124e9565b828152809261287c601f1991612592565b0190602036910137565b91908203918211611d8d57565b60ff6002541661289f57565b60405162461bcd60e51b815260206004820152601060248201526f14185d5cd8589b194e881c185d5cd95960821b6044820152606490fd5b60058110156129d657806128e85750565b600181036129305760405162461bcd60e51b815260206004820152601860248201527745434453413a20696e76616c6964207369676e617475726560401b6044820152606490fd5b6002810361297d5760405162461bcd60e51b815260206004820152601f60248201527f45434453413a20696e76616c6964207369676e6174757265206c656e677468006044820152606490fd5b60031461298657565b60405162461bcd60e51b815260206004820152602260248201527f45434453413a20696e76616c6964207369676e6174757265202773272076616c604482015261756560f01b6064820152608490fd5b634e487b7160e01b600052602160045260246000fd5b906041815114600014612a1a57612a16916020820151906060604084015193015160001a90612a24565b9091565b5050600090600290565b9291906fa2a8918ca85bafe22016d0b997e4df60600160ff1b038311612a9d5791608094939160ff602094604051948552168484015260408301526060820152600093849182805260015afa15612a905781516001600160a01b03811615612a8a579190565b50600190565b50604051903d90823e3d90fd5b50505050600090600390565b600554919060005b838110612ac45750509050600090600090565b81612ace82612607565b50541480612af2575b612ae957612ae490612824565b612ab1565b92505060019190565b5060ff6004612b0083612607565b50015416612ad7565b9067016345785d8a0000821115612b985767016345785d89ffff19820191808311611d8d57826123288083029183159184840414821715611d8d57612710809304809111612b90575b50600081612b895750818502918583041485151715611d8d57612b73570490565b634e487b7160e01b600052601260045260246000fd5b9250505090565b945038612b52565b600091508190565b9081602091031261020b5751801515810361020b5790565b6001600160a01b039091168152602081019190915260400190565b3d15612bfe573d90612be48261250c565b91612bf260405193846124e9565b82523d6000602084013e565b606090565b15612c0a57565b60405162461bcd60e51b8152602060048201526013602482015272115512081d1c985b9cd9995c8819985a5b1959606a1b6044820152606490fd5b60ff6002541615612c5257565b60405162461bcd60e51b815260206004820152601460248201527314185d5cd8589b194e881b9bdd081c185d5cd95960621b6044820152606490fd5b60019160ff8383015460081c1615612cf557600091835b612cb3575b50505050600090565b60028101928354811015612cef5782612ccd82879661268d565b90549060031b1c14612ce857612ce290612824565b92612ca5565b5050505090565b50612caa565b505050600090565b604051612d5b916001600160a01b0316612d16826124ce565b6000806020958685527f5361666545524332303a206c6f772d6c6576656c2063616c6c206661696c656487860152868151910182855af1612d55612bd3565b91612de3565b805190828215928315612dcb575b50505015612d745750565b6084906040519062461bcd60e51b82526004820152602a60248201527f5361666545524332303a204552433230206f7065726174696f6e20646964206e6044820152691bdd081cdd58d8d9595960b21b6064820152fd5b612ddb9350820181019101612ba0565b388281612d69565b91929015612e455750815115612df7575090565b3b15612e005790565b60405162461bcd60e51b815260206004820152601d60248201527f416464726573733a2063616c6c20746f206e6f6e2d636f6e74726163740000006044820152606490fd5b825190915015612e585750805190602001fd5b60405162461bcd60e51b815260206004820152908190612e7c9060248301906126a5565b0390fd5b6001600160a01b031680612e9357504790565b6020602491604051928380926370a0823160e01b82523060048301525afa9081156107e257600091612ec3575090565b906020823d8211612eec575b81612edc602093836124e9565b81010312612ee957505190565b80fd5b3d9150612ecf565b805115612f8a5760005b8151811015612f8357612f118183612833565b5115612f7c576001808201808311611d8d57815b612f3a575b5050612f3590612824565b612efe565b8391929351811015612f7357612f508483612833565b51612f5b8284612833565b5114612caa57612f6a90612824565b82919392612f25565b81939250612f2a565b5050600090565b5050600190565b5060009056fe0bb5b396beb5f05ba121e866f946d455c53e0dacd56c4b77181445c1702e3383c0819c13be868895eb93e40eaceb96de976442fa1d404e5c55f14bb65a8c489a8be0079c531659141344cd1fd0a4f28419497f9722a3daafe3b4186f6b6457e0a264697066735822122010476c0097381b9aed95ea7a039b1659d6e9a5a7ee8f99bc9ba571e0f536841864736f6c63430008130033",
  "linkReferences": {},
  "deployedLinkReferences": {}
}