{
  "_format": "hh-sol-artifact-1",
  "contractName": "TreasuryECDSA",
  "sourceName": "contracts/treasury/TreasuryECDSA.sol",
  "abi": [
    {
      "inputs": [
        {
          "internalType": "address",
          "name": "_owner",
          "type": "address"
        },
        {
          "internalType": "uint256[]",
          "name": "_denominations",
          "type": "uint256[]"
        }
      ],
      "stateMutability": "nonpayable",
      "type": "constructor"
    },
    {
      "inputs": [],
      "name": "AmountTooSmall",
      "type": "error"
    },
    {
      "inputs": [],
      "name": "ContractIsPaused",
      "type": "error"
    },
    {
      "inputs": [],
      "name": "DenominationNotSupported",
      "type": "error"
    },
    {
      "inputs": [],
      "name": "InsufficientContractBalance",
      "type": "error"
    },
    {
      "inputs": [],
      "name": "InvalidAddress",
      "type": "error"
    },
    {
      "inputs": [],
      "name": "InvalidAmount",
      "type": "error"
    },
    {
      "inputs": [],
      "name": "InvalidDenomination",
      "type": "error"
    },
    {
      "inputs": [],
      "name": "InvalidExpiryDays",
      "type": "error"
    },
    {
      "inputs": [],
      "name": "InvalidMerkleProof",
      "type": "error"
    },
    {
      "inputs": [],
      "name": "InvalidSignature",
      "type": "error"
    },
    {
      "inputs": [],
      "name": "KeyAlreadyUsed",
      "type": "error"
    },
    {
      "inputs": [],
      "name": "MerkleRootExpired",
      "type": "error"
    },
    {
      "inputs": [],
      "name": "MerkleRootIsPaused",
      "type": "error"
    },
    {
      "inputs": [],
      "name": "MerkleRootNotExpired",
      "type": "error"
    },
    {
      "inputs": [],
      "name": "MerkleRootNotFound",
      "type": "error"
    },
    {
      "inputs": [],
      "name": "NotOwner",
      "type": "error"
    },
    {
      "inputs": [],
      "name": "TransferFailed",
      "type": "error"
    },
    {
      "anonymous": false,
      "inputs": [
        {
          "indexed": true,
          "internalType": "address",
          "name": "by",
          "type": "address"
        }
      ],
      "name": "ContractPaused",
      "type": "event"
    },
    {
      "anonymous": false,
      "inputs": [
        {
          "indexed": true,
          "internalType": "address",
          "name": "by",
          "type": "address"
        }
      ],
      "name": "ContractUnpaused",
      "type": "event"
    },
    {
      "anonymous": false,
      "inputs": [
        {
          "indexed": false,
          "internalType": "uint256",
          "name": "denomination",
          "type": "uint256"
        }
      ],
      "name": "DenominationAdded",
      "type": "event"
    },
    {
      "anonymous": false,
      "inputs": [
        {
          "indexed": true,
          "internalType": "address",
          "name": "depositor",
          "type": "address"
        },
        {
          "indexed": false,
          "internalType": "uint256",
          "name": "amount",
          "type": "uint256"
        },
        {
          "indexed": false,
          "internalType": "uint256",
          "name": "protocolFee",
          "type": "uint256"
        },
        {
          "indexed": false,
          "internalType": "uint256",
          "name": "netAmount",
          "type": "uint256"
        },
        {
          "indexed": false,
          "internalType": "uint256",
          "name": "timestamp",
          "type": "uint256"
        }
      ],
      "name": "Deposit",
      "type": "event"
    },
    {
      "anonymous": false,
      "inputs": [
        {
          "indexed": true,
          "internalType": "uint256",
          "name": "merkleRootId",
          "type": "uint256"
        },
        {
          "indexed": true,
          "internalType": "address",
          "name": "by",
          "type": "address"
        }
      ],
      "name": "MerkleRootPaused",
      "type": "event"
    },
    {
      "anonymous": false,
      "inputs": [
        {
          "indexed": true,
          "internalType": "uint256",
          "name": "merkleRootId",
          "type": "uint256"
        },
        {
          "indexed": true,
          "internalType": "address",
          "name": "by",
          "type": "address"
        }
      ],
      "name": "MerkleRootRemoved",
      "type": "event"
    },
    {
      "anonymous": false,
      "inputs": [
        {
          "indexed": true,
          "internalType": "uint256",
          "name": "merkleRootId",
          "type": "uint256"
        },
        {
          "indexed": true,
          "internalType": "uint256",
          "name": "denomination",
          "type": "uint256"
        },
        {
          "indexed": false,
          "internalType": "bytes32",
          "name": "merkleRoot",
          "type": "bytes32"
        },
        {
          "indexed": false,
          "internalType": "uint256",
          "name": "expiryTimestamp",
          "type": "uint256"
        }
      ],
      "name": "MerkleRootSet",
      "type": "event"
    },
    {
      "anonymous": false,
      "inputs": [
        {
          "indexed": true,
          "internalType": "uint256",
          "name": "merkleRootId",
          "type": "uint256"
        },
        {
          "indexed": true,
          "internalType": "address",
          "name": "by",
          "type": "address"
        }
      ],
      "name": "MerkleRootUnpaused",
      "type": "event"
    },
    {
      "anonymous": false,
      "inputs": [
        {
          "indexed": true,
          "internalType": "address",
          "name": "previousOwner",
          "type": "address"
        },
        {
          "indexed": true,
          "internalType": "address",
          "name": "newOwner",
          "type": "address"
        }
      ],
      "name": "OwnershipTransferred",
      "type": "event"
    },
    {
      "anonymous": false,
      "inputs": [
        {
          "indexed": true,
          "internalType": "address",
          "name": "recipient",
          "type": "address"
        },
        {
          "indexed": false,
          "internalType": "uint256",
          "name": "amount",
          "type": "uint256"
        }
      ],
      "name": "ProtocolFeesWithdrawn",
      "type": "event"
    },
    {
      "anonymous": false,
      "inputs": [
        {
          "indexed": true,
          "internalType": "address",
          "name": "recipient",
          "type": "address"
        },
        {
          "indexed": true,
          "internalType": "address",
          "name": "signer",
          "type": "address"
        },
        {
          "indexed": false,
          "internalType": "uint256",
          "name": "amount",
          "type": "uint256"
        },
        {
          "indexed": false,
          "internalType": "uint256",
          "name": "denomination",
          "type": "uint256"
        },
        {
          "indexed": false,
          "internalType": "uint256",
          "name": "merkleRootId",
          "type": "uint256"
        },
        {
          "indexed": false,
          "internalType": "uint256",
          "name": "keyIndex",
          "type": "uint256"
        }
      ],
      "name": "Withdrawal",
      "type": "event"
    },
    {
      "inputs": [],
      "name": "BASIS_POINTS_DENOMINATOR",
      "outputs": [
        {
          "internalType": "uint256",
          "name": "",
          "type": "uint256"
        }
      ],
      "stateMutability": "view",
      "type": "function"
    },
    {
      "inputs": [],
      "name": "PROTOCOL_FEE_BASIS_POINTS",
      "outputs": [
        {
          "internalType": "uint256",
          "name": "",
          "type": "uint256"
        }
      ],
      "stateMutability": "view",
      "type": "function"
    },
    {
      "inputs": [
        {
          "internalType": "uint256",
          "name": "denomination",
          "type": "uint256"
        }
      ],
      "name": "addDenomination",
      "outputs": [],
      "stateMutability": "nonpayable",
      "type": "function"
    },
    {
      "inputs": [],
      "name": "contractPaused",
      "outputs": [
        {
          "internalType": "bool",
          "name": "",
          "type": "bool"
        }
      ],
      "stateMutability": "view",
      "type": "function"
    },
    {
      "inputs": [
        {
          "internalType": "uint256",
          "name": "",
          "type": "uint256"
        },
        {
          "internalType": "uint256",
          "name": "",
          "type": "uint256"
        }
      ],
      "name": "denominationToMerkleRootIds",
      "outputs": [
        {
          "internalType": "uint256",
          "name": "",
          "type": "uint256"
        }
      ],
      "stateMutability": "view",
      "type": "function"
    },
    {
      "inputs": [
        {
          "internalType": "uint256",
          "name": "",
          "type": "uint256"
        }
      ],
      "name": "denominations",
      "outputs": [
        {
          "internalType": "uint256",
          "name": "",
          "type": "uint256"
        }
      ],
      "stateMutability": "view",
      "type": "function"
    },
    {
      "inputs": [],
      "name": "deposit",
      "outputs": [],
      "stateMutability": "payable",
      "type": "function"
    },
    {
      "inputs": [],
      "name": "getBalance",
      "outputs": [
        {
          "internalType": "uint256",
          "name": "",
          "type": "uint256"
        }
      ],
      "stateMutability": "view",
      "type": "function"
    },
    {
      "inputs": [],
      "name": "getDenominations",
      "outputs": [
        {
          "internalType": "uint256[]",
          "name": "",
          "type": "uint256[]"
        }
      ],
      "stateMutability": "view",
      "type": "function"
    },
    {
      "inputs": [
        {
          "internalType": "uint256",
          "name": "denomination",
          "type": "uint256"
        }
      ],
      "name": "getMerkleRootIds",
      "outputs": [
        {
          "internalType": "uint256[]",
          "name": "",
          "type": "uint256[]"
        }
      ],
      "stateMutability": "view",
      "type": "function"
    },
    {
      "inputs": [
        {
          "internalType": "uint256",
          "name": "",
          "type": "uint256"
        }
      ],
      "name": "isDenominationSupported",
      "outputs": [
        {
          "internalType": "bool",
          "name": "",
          "type": "bool"
        }
      ],
      "stateMutability": "view",
      "type": "function"
    },
    {
      "inputs": [
        {
          "internalType": "uint256",
          "name": "merkleRootId",
          "type": "uint256"
        },
        {
          "internalType": "uint256",
          "name": "keyIndex",
          "type": "uint256"
        }
      ],
      "name": "isKeyUsed",
      "outputs": [
        {
          "internalType": "bool",
          "name": "",
          "type": "bool"
        }
      ],
      "stateMutability": "view",
      "type": "function"
    },
    {
      "inputs": [
        {
          "internalType": "uint256",
          "name": "",
          "type": "uint256"
        }
      ],
      "name": "merkleRoots",
      "outputs": [
        {
          "internalType": "bytes32",
          "name": "merkleRoot",
          "type": "bytes32"
        },
        {
          "internalType": "uint256",
          "name": "denomination",
          "type": "uint256"
        },
        {
          "internalType": "uint256",
          "name": "expiryTimestamp",
          "type": "uint256"
        },
        {
          "internalType": "bool",
          "name": "isActive",
          "type": "bool"
        },
        {
          "internalType": "bool",
          "name": "isPaused",
          "type": "bool"
        }
      ],
      "stateMutability": "view",
      "type": "function"
    },
    {
      "inputs": [],
      "name": "nextMerkleRootId",
      "outputs": [
        {
          "internalType": "uint256",
          "name": "",
          "type": "uint256"
        }
      ],
      "stateMutability": "view",
      "type": "function"
    },
    {
      "inputs": [],
      "name": "owner",
      "outputs": [
        {
          "internalType": "address",
          "name": "",
          "type": "address"
        }
      ],
      "stateMutability": "view",
      "type": "function"
    },
    {
      "inputs": [],
      "name": "pauseContract",
      "outputs": [],
      "stateMutability": "nonpayable",
      "type": "function"
    },
    {
      "inputs": [
        {
          "internalType": "uint256",
          "name": "merkleRootId",
          "type": "uint256"
        }
      ],
      "name": "pauseMerkleRoot",
      "outputs": [],
      "stateMutability": "nonpayable",
      "type": "function"
    },
    {
      "inputs": [],
      "name": "protocolFeesCollected",
      "outputs": [
        {
          "internalType": "uint256",
          "name": "",
          "type": "uint256"
        }
      ],
      "stateMutability": "view",
      "type": "function"
    },
    {
      "inputs": [
        {
          "internalType": "bytes32",
          "name": "messageHash",
          "type": "bytes32"
        },
        {
          "internalType": "bytes",
          "name": "signature",
          "type": "bytes"
        }
      ],
      "name": "recoverSigner",
      "outputs": [
        {
          "internalType": "address",
          "name": "",
          "type": "address"
        }
      ],
      "stateMutability": "pure",
      "type": "function"
    },
    {
      "inputs": [
        {
          "internalType": "uint256",
          "name": "merkleRootId",
          "type": "uint256"
        }
      ],
      "name": "removeExpiredMerkleRoot",
      "outputs": [],
      "stateMutability": "nonpayable",
      "type": "function"
    },
    {
      "inputs": [
        {
          "internalType": "uint256",
          "name": "denomination",
          "type": "uint256"
        },
        {
          "internalType": "bytes32",
          "name": "merkleRoot",
          "type": "bytes32"
        },
        {
          "internalType": "uint256",
          "name": "expiryDays",
          "type": "uint256"
        }
      ],
      "name": "setMerkleRoot",
      "outputs": [],
      "stateMutability": "nonpayable",
      "type": "function"
    },
    {
      "inputs": [],
      "name": "smallestDenomination",
      "outputs": [
        {
          "internalType": "uint256",
          "name": "",
          "type": "uint256"
        }
      ],
      "stateMutability": "view",
      "type": "function"
    },
    {
      "inputs": [],
      "name": "totalDeposited",
      "outputs": [
        {
          "internalType": "uint256",
          "name": "",
          "type": "uint256"
        }
      ],
      "stateMutability": "view",
      "type": "function"
    },
    {
      "inputs": [],
      "name": "totalWithdrawn",
      "outputs": [
        {
          "internalType": "uint256",
          "name": "",
          "type": "uint256"
        }
      ],
      "stateMutability": "view",
      "type": "function"
    },
    {
      "inputs": [
        {
          "internalType": "address",
          "name": "newOwner",
          "type": "address"
        }
      ],
      "name": "transferOwnership",
      "outputs": [],
      "stateMutability": "nonpayable",
      "type": "function"
    },
    {
      "inputs": [],
      "name": "unpauseContract",
      "outputs": [],
      "stateMutability": "nonpayable",
      "type": "function"
    },
    {
      "inputs": [
        {
          "internalType": "uint256",
          "name": "merkleRootId",
          "type": "uint256"
        }
      ],
      "name": "unpauseMerkleRoot",
      "outputs": [],
      "stateMutability": "nonpayable",
      "type": "function"
    },
    {
      "inputs": [
        {
          "internalType": "bytes32",
          "name": "",
          "type": "bytes32"
        }
      ],
      "name": "usedKeys",
      "outputs": [
        {
          "internalType": "bool",
          "name": "",
          "type": "bool"
        }
      ],
      "stateMutability": "view",
      "type": "function"
    },
    {
      "inputs": [
        {
          "internalType": "address payable",
          "name": "recipient",
          "type": "address"
        },
        {
          "internalType": "uint256",
          "name": "denomination",
          "type": "uint256"
        },
        {
          "internalType": "uint256",
          "name": "merkleRootId",
          "type": "uint256"
        },
        {
          "internalType": "bytes",
          "name": "signature",
          "type": "bytes"
        },
        {
          "internalType": "bytes32[]",
          "name": "merkleProof",
          "type": "bytes32[]"
        },
        {
          "internalType": "uint256",
          "name": "keyIndex",
          "type": "uint256"
        }
      ],
      "name": "withdraw",
      "outputs": [],
      "stateMutability": "nonpayable",
      "type": "function"
    },
    {
      "inputs": [
        {
          "internalType": "address payable",
          "name": "recipient",
          "type": "address"
        }
      ],
      "name": "withdrawProtocolFees",
      "outputs": [],
      "stateMutability": "nonpayable",
      "type": "function"
    }
  ],
  "bytecode": "0x604060808152346200030a576200204590813803806200001f8162000325565b93843982019181818403126200030a5780516001600160a01b038116908190036200030a5760208281015190926001600160401b0391908282116200030a57019480601f870112156200030a578551958287116200030f578660051b9085806200008b81850162000325565b809a815201928201019283116200030a5785809101915b838310620002f9575050505060019160009183835583600b558115620002e857865115620002a457600480546001600160a01b031916909217825585519061095a808301918211838310176200029157908291620016eb8339039083f09586156200028757600c8054610100600160a81b03191660089890981b610100600160a81b03169790971790965590946000199386929190845b62000152575b8686600355516113749081620003778239f35b815188101562000281576200016888836200034b565b51156200023f576200017b88836200034b565b518554680100000000000000008110156200022c5786810180885581101562000219578686528286200155620001b288836200034b565b51845260028152868420805460ff19168617905585620001d389846200034b565b511062000203575b6000198814620001f057968401968462000139565b634e487b7160e01b845260118352602484fd5b94506200021187826200034b565b5194620001db565b634e487b7160e01b865260328552602486fd5b634e487b7160e01b865260418552602486fd5b8260649188519162461bcd60e51b8352820152601460248201527f496e76616c69642064656e6f6d696e6174696f6e0000000000000000000000006044820152fd5b6200013f565b85513d84823e3d90fd5b634e487b7160e01b855260418452602485fd5b855162461bcd60e51b815260048101869052601960248201527f4e6f2064656e6f6d696e6174696f6e732070726f7669646564000000000000006044820152606490fd5b855163e6c4247b60e01b8152600490fd5b8251815291810191869101620000a2565b600080fd5b634e487b7160e01b600052604160045260246000fd5b6040519190601f01601f191682016001600160401b038111838210176200030f57604052565b8051821015620003605760209160051b010190565b634e487b7160e01b600052603260045260246000fdfe608080604052600436101561001357600080fd5b60003560e01c90816312065fe014610fb5575080632d80caa514610f2e5780632e7a923f14610d815780632e7e32d214610d17578063311b8ec014610ce6578063439766ce14610c8e5780634b31971314610c705780634d844d9714610c5257806350e8406614610c0757806371c5ecb114610ba757806383d4018214610b89578063896251ed14610b125780638a67456a14610aef5780638da5cb5b14610ac657806397aba7f914610a765780639c299a9514610a45578063aab91e16146109b4578063b33712c51461095f578063bc250b70146104ce578063cc08b834146104b0578063cc2ed69714610480578063cc7b537514610441578063cfa498a314610424578063d0e30db014610379578063d707cc201461035d578063d95a1c76146102e5578063ee1fd3e314610260578063f2fde38b146101cb578063f3ce61ad1461018c5763ff50abdc1461016957600080fd5b34610187576000366003190112610187576020600554604051908152f35b600080fd5b346101875760203660031901126101875760043560015481101561018757600160005260008051602061131f8339815191520154604051908152602090f35b34610187576020366003190112610187576004356001600160a01b0381811691829003610187576004549081169081330361024e57821561023c576001600160a01b03191682176004557f8be0079c531659141344cd1fd0a4f28419497f9722a3daafe3b4186f6b6457e0600080a3005b60405163e6c4247b60e01b8152600490fd5b6040516330cd747160e01b8152600490fd5b3461018757602036600319011261018757600480549035906001600160a01b0316330361024e578060005260096020526003604060002001805460ff8116156102d35761ff001916905533907f24a89dc06ad500a9414f84975a42b6edf7a7732f202fb7be19b2974caff9150b600080a3005b604051635d91567160e01b8152600490fd5b34610187576000366003190112610187576040516001805480835260008281526020808501949360008051602061131f83398151915293909290915b8282106103485761034486610338818a03826110b8565b60405191829182610fe4565b0390f35b84548752958601959383019390830190610321565b3461018757600036600319011261018757602060405160008152f35b60003660031901126101875760ff600c54166104125734156104005760035434106103ee576103aa34600554611090565b600555604051348152600060208201523460408201524260608201527f7162984403f6c73c8639375d45a9187dfd04602231bd8e587c415718b5f7e5f960803392a2005b60405163617ab12d60e11b8152600490fd5b60405163162908e360e11b8152600490fd5b6040516306d39fcd60e41b8152600490fd5b346101875760003660031901126101875760206040516127108152f35b346101875761044f3661101f565b90600052600a602052604060002080548210156101875760209161047291611062565b90546040519160031b1c8152f35b34610187576020366003190112610187576004546001600160a01b0316330361024e576104ae60043561124c565b005b34610187576000366003190112610187576020600754604051908152f35b346101875760c0366003190112610187576104e7610fce565b6064356001600160401b03811161018757610506903690600401611035565b906001600160401b036084351161018757366023608435011215610187576001600160401b036004608435013511610187573660246084356004013560051b6084350101116101875760026000541461091a576002600055600c5460ff811661041257604435600052600960205260ff60036040600020015460081c16610908576001600160a01b0384161561023c57602435600052600260205260ff60406000205416156108f657604435600052600960205260406000209160ff600384015416156102d3576024356001840154036108e45760028301544210156108d25760243547106108c057604051604435602082015260a43560408201526040815261060f8161109d565b602081519101209283600052600860205260ff604060002054166108ae5754604051606087901b6001600160601b0319166020820152602435603482015260548101829052466074808301919091528152909490916001600160401b0360a0840190811190841117610886578260a0610692940160405260208151910120611126565b926001600160a01b0384161561089c5760408051606086901b6001600160601b0319166020820190815260148252909391840192906001600160401b03841185851017610886576040849052845190206387b3695d60e01b8452604485019190915260648401526080608480850191909152356004013560c484018190526001600160fb1b031061018757816020916084356004013560051b60246084350160e487013760a48035868201526004608435013560051b86018690030190829060081c6001600160a01b03165afa91821561087a57600092610842575b5050156108305760005260086020526040600020600160ff1982541617905561079b602435600654611090565b60065560008080806024356001600160a01b0387165af16107ba6110f6565b501561081e576040805160243580825260208201526044359181019190915260a43560608201526001600160a01b0391821692909116907f7f3fa649aa08dbaff5b36b865f9585ae5b83bcb35185c846035019b63967b6e990608090a36001600055005b6040516312171d8360e31b8152600490fd5b60405163582f497d60e11b8152600490fd5b6020809293503d8311610873575b61085a81856110b8565b810103126101875751801515810361018757848061076e565b503d610850565b6040513d6000823e3d90fd5b634e487b7160e01b600052604160045260246000fd5b604051638baa579f60e01b8152600490fd5b6040516312b3b8ff60e01b8152600490fd5b60405163786e0a9960e01b8152600490fd5b604051634f01675560e01b8152600490fd5b604051637833d9e360e11b8152600490fd5b604051631160a4c760e11b8152600490fd5b604051636ebfd13560e01b8152600490fd5b60405162461bcd60e51b815260206004820152601f60248201527f5265656e7472616e637947756172643a207265656e7472616e742063616c6c006044820152606490fd5b34610187576000366003190112610187576004546001600160a01b0316330361024e5760ff19600c5416600c55337f5b65b0c1363b3003db9bcc5e1fd8805a6d6bf5bf6dc9d3431ee4494cd7d11766600080a2005b3461018757602036600319011261018757600480549035906001600160a01b0316330361024e578060005260096020526040600020600381019081549060ff8216156102d357600201544210610a335760ff1916905533907fd7b9cfac824b9d9da1a0209ca0aae59383e0305618926a7229e26d41531aa3da600080a3005b604051632ffb155760e11b8152600490fd5b34610187576020366003190112610187576004356000526002602052602060ff604060002054166040519015158152f35b34610187576040366003190112610187576024356001600160401b03811161018757610ab4610aab6020923690600401611035565b90600435611126565b6040516001600160a01b039091168152f35b34610187576000366003190112610187576004546040516001600160a01b039091168152602090f35b3461018757600036600319011261018757602060ff600c54166040519015158152f35b3461018757602036600319011261018757600480549035906001600160a01b0316330361024e578060005260096020526003604060002001805460ff8116156102d35761ff00191661010017905533907fe956a8d47f0414665e811d4bb176a8097b16e67394fa45de58176edb9a499757600080a3005b34610187576000366003190112610187576020600354604051908152f35b3461018757602036600319011261018757600435600052600960205260a0604060002060ff8154916001810154906003600282015491015491604051948552602085015260408401528181161515606084015260081c1615156080820152f35b3461018757610c153661101f565b6040519060208201928352604082015260408152610c328161109d565b5190206000526008602052602060ff604060002054166040519015158152f35b34610187576000366003190112610187576020600b54604051908152f35b34610187576000366003190112610187576020600654604051908152f35b34610187576000366003190112610187576004546001600160a01b0316330361024e57600160ff19600c541617600c55337f81990fd9a5c552b8e3677917d8a03c07678f0d2cb68f88b634aca2022e9bd19f600080a2005b34610187576020366003190112610187576004356000526008602052602060ff604060002054166040519015158152f35b346101875760208060031936011261018757600435600052600a8152604060002090604051908181845491828152019360005281600020916000905b828210610d6a5761034485610338818903826110b8565b835486529485019460019384019390910190610d53565b34610187576060366003190112610187576004805490359060443590602435906001600160a01b0316330361024e5782600052600260205260ff60406000205416156108f6578115808015610f23575b610f1157600b549260001991828514610efb5760018501600b5562015180808302928304141715610efb57610e069042611090565b60405190929060a081016001600160401b0381118282101761088657604052818152602081018681526003604083019286845260608101936001855260808201936000855289600052600960205260406000209251835551600183015551600282015501915115159060ff61ff0084549251151560081b1692169061ffff19161717905584600052600a602052604060002092835492600160401b84101561088657610edb847fd4ee12edc380562d0500459d9a4cb876ae52b0663c8dff6d276c0484ecf4d6b0966001604097018155611062565b819291549060031b9188831b921b191617905582519182526020820152a3005b634e487b7160e01b600052601160045260246000fd5b604051638d2fdddf60e01b8152600490fd5b5061016d8311610dd1565b3461018757602036600319011261018757610f47610fce565b6004546001600160a01b0391908216330361024e5716801561023c576007548015610400576000600755600080808084865af1610f826110f6565b501561081e5760207fa087657e3d85162090ffd700fbfdf5070d816f63aa5da00063f6ffd369c8a6db91604051908152a2005b3461018757600036600319011261018757602090478152f35b600435906001600160a01b038216820361018757565b6020908160408183019282815285518094520193019160005b82811061100b575050505090565b835185529381019392810192600101610ffd565b6040906003190112610187576004359060243590565b9181601f84011215610187578235916001600160401b038311610187576020838186019501011161018757565b805482101561107a5760005260206000200190600090565b634e487b7160e01b600052603260045260246000fd5b91908201809211610efb57565b606081019081106001600160401b0382111761088657604052565b601f909101601f19168101906001600160401b0382119082101761088657604052565b6001600160401b03811161088657601f01601f191660200190565b3d15611121573d90611107826110db565b9161111560405193846110b8565b82523d6000602084013e565b606090565b919091611132826110db565b9161114060405193846110b8565b80835236818501116101875760208160009261116396838701378401015261118f565b6005811015611179576111735790565b50600090565b634e487b7160e01b600052602160045260246000fd5b9060418151146000146111bd576111b9916020820151906060604084015193015160001a906111c7565b9091565b5050600090600290565b9291906fa2a8918ca85bafe22016d0b997e4df60600160ff1b0383116112405791608094939160ff602094604051948552168484015260408301526060820152600093849182805260015afa156112335781516001600160a01b0381161561122d579190565b50600190565b50604051903d90823e3d90fd5b50505050600090600390565b80156108e4576000818152600260205260ff60408220541661131a57600154600160401b8110156113065760018101806001558110156112f25760008051602061131f83398151915201829055818152600260209081526040909120805460ff191660011790556003547f60566339e0ed4f109de0875d685aadfbee670131a357b53b5ca7a824102cd861929081106112e9575b604051908152a1565b806003556112e0565b634e487b7160e01b82526032600452602482fd5b634e487b7160e01b82526041600452602482fd5b505056feb10e2d527612073b26eecdfd717e6a320cf44b4afac2b0732d9fcbe2b7fa0cf6a264697066735822122042921e438b90797ba4eb0dd250560d465ae302324738a2576a2d211a625a1bd564736f6c63430008130033608080604052346100165761093e908161001c8239f35b600080fdfe6040608081526004908136101561001557600080fd5b600090813560e01c806335e29c881461053157806387b3695d1461052c578063b504fcd51461052c578063cfb2bc51146104905763d6da100e1461005857600080fd5b3461048c578060031936011261048c5782356001600160401b038111610488576100859036908501610575565b9190926024948535948486101561043a578295949594865b6001808211156100d4578082018092116100c2571c956100bc90610629565b9561009d565b634e487b7160e01b8652601185528986fd5b8584848b8d898c6100e48f61070e565b926100ee8561070e565b97805b86811061041657508681975b8a519a60019b8c81111561029c578c810180911161028a57610120908d1c61070e565b90828d16610269578c8301808411610257578151811015610243576101459082610760565b516101508c8b610760565b525b848d5b61016f575b505090610169919b1c98610629565b976100fd565b8d835182101561023d5781901b8181046002148215171561022b578e81019081811161021957918f92916101eb92855182106000146101f1576101b56101bd9187610760565b519186610760565b518b5190602082019283528c8201528b81526101d8816105f8565b5190206101e58287610760565b52610629565b90610155565b6101fc915085610760565b518a5160208101918252600019818d01528b81526101d8816105f8565b634e487b7160e01b885260118b528888fd5b634e487b7160e01b875260118a528787fd5b5061015a565b506000196102518c8b610760565b52610152565b634e487b7160e01b8652601189528686fd5b60001983018381116102575761027f9082610760565b516102518c8b610760565b634e487b7160e01b8552601188528585fd5b508a9798915091809496928a6102b18161070e565b9a865b8281106103ee57505050916102cb6102d293610753565b519861064e565b35929482955b885187101561034b57610321906102ef888b610760565b5160019690828816610327578851906020820192835289820152888152610315816105f8565b519020955b1c96610629565b956102d8565b908851906020820192835289820152888152610342816105f8565b5190209561031a565b508688949593950361039a57505090815192839260208080860192818752855180945286019401925b82811061038357505050500390f35b835185528695509381019392810192600101610374565b602a906020608494519362461bcd60e51b85528401528201527f4d65726b6c6556657269666965723a2067656e6572617465642070726f6f66206044820152691a5cc81a5b9d985b1a5960b21b6064820152fd5b81929394508c6101e5826104058161040c96610760565b5192610760565b90879392916102b4565b8061042761043292898c9d9c61064e565b356101e5828c610760565b9897986100f1565b835162461bcd60e51b81526020818401526023818901527f4d65726b6c6556657269666965723a20696e646578206f7574206f6620626f756044820152626e647360e81b6064820152608490fd5b8280fd5b5080fd5b509034610529576108c03660031901126105295761088436811161048c576001600160401b0391903582811161048c576104cd9036908601610575565b9184519360208501916108608060248537865261088086019182118683101761051657509561050d9493929160209787526108a435945190209035610674565b90519015158152f35b634e487b7160e01b815260418852602490fd5b80fd5b6105aa565b509034610529576020366003190112610529578235906001600160401b038211610529575061056860209361056e92369101610575565b90610774565b9051908152f35b9181601f840112156105a5578235916001600160401b0383116105a5576020808501948460051b0101116105a557565b600080fd5b346105a55760803660031901126105a5576044356001600160401b0381116105a5576105ee6105df6020923690600401610575565b60643591602435600435610674565b6040519015158152f35b606081019081106001600160401b0382111761061357604052565b634e487b7160e01b600052604160045260246000fd5b60001981146106385760010190565b634e487b7160e01b600052601160045260246000fd5b919081101561065e5760051b0190565b634e487b7160e01b600052603260045260246000fd5b9390926000915b81831061068a57505050501490565b6106cc9061069984848761064e565b60019690358288166106d2576040805191602083019384528183015281526106c0816105f8565b519020955b1c92610629565b9161067b565b906040805191602083019384528183015281526106ee816105f8565b519020956106c5565b6001600160401b0381116106135760051b60200190565b90610718826106f7565b60405190601f1990601f01811682016001600160401b038111838210176106135760405283825261074982946106f7565b0190602036910137565b80511561065e5760200190565b805182101561065e5760209160051b010190565b81156108b8576001908183146108b15761078f83949361070e565b9360005b81811061088c57505050805b6107b3575b50906107af90610753565b5190565b82518181111561088657818101809111610638576107d290821c61070e565b926000825b6107e5575b5081905061079f565b84518110156108815780831b8181046002148215171561063857838101918282116106385784926108519285518210600014610857576101b56108289187610760565b51604080519160208301938452818301528152610844816105f8565b5190206101e58289610760565b906107d7565b610862915085610760565b51604080516020810192835260001981830152908152610844816105f8565b6107dc565b506107a4565b8061089e6108a992848699989961064e565b356101e58288610760565b949394610793565b9150503590565b60405162461bcd60e51b815260206004820152602260248201527f4d65726b6c6556657269666965723a20656d707479206c656176657320617272604482015261617960f01b6064820152608490fdfea2646970667358221220489ec4d4302a71199293df49014504a70d01fd1805ca4f076c7a468e87abb3b164736f6c63430008130033",
  "linkReferences": {},
  "deployedLinkReferences": {}
}