{
  "_format": "hh-sol-artifact-1",
  "contractName": "MultiTokenTreasury",
  "sourceName": "contracts/treasury/MultiTokenTreasury.sol",
  "abi": [
    {
      "inputs": [
        {
          "internalType": "address",
          "name": "_owner",
          "type": "address"
        }
      ],
      "stateMutability": "nonpayable",
      "type": "constructor"
    },
    {
      "inputs": [],
      "name": "InsufficientLiquidity",
      "type": "error"
    },
    {
      "inputs": [],
      "name": "InvalidDenomination",
      "type": "error"
    },
    {
      "inputs": [],
      "name": "InvalidMerkleRoot",
      "type": "error"
    },
    {
      "inputs": [],
      "name": "InvalidSignature",
      "type": "error"
    },
    {
      "inputs": [],
      "name": "InvalidTokenConfig",
      "type": "error"
    },
    {
      "inputs": [],
      "name": "MerkleRootNotFound",
      "type": "error"
    },
    {
      "inputs": [],
      "name": "NullifierAlreadyUsed",
      "type": "error"
    },
    {
      "inputs": [],
      "name": "TokenNotSupported",
      "type": "error"
    },
    {
      "anonymous": false,
      "inputs": [
        {
          "indexed": true,
          "internalType": "address",
          "name": "token",
          "type": "address"
        },
        {
          "indexed": true,
          "internalType": "address",
          "name": "depositor",
          "type": "address"
        },
        {
          "indexed": false,
          "internalType": "uint256",
          "name": "amount",
          "type": "uint256"
        },
        {
          "indexed": false,
          "internalType": "bytes32",
          "name": "commitment",
          "type": "bytes32"
        }
      ],
      "name": "Deposit",
      "type": "event"
    },
    {
      "anonymous": false,
      "inputs": [
        {
          "indexed": true,
          "internalType": "address",
          "name": "token",
          "type": "address"
        },
        {
          "indexed": false,
          "internalType": "uint256",
          "name": "amount",
          "type": "uint256"
        }
      ],
      "name": "FeesWithdrawn",
      "type": "event"
    },
    {
      "anonymous": false,
      "inputs": [
        {
          "indexed": true,
          "internalType": "uint256",
          "name": "rootId",
          "type": "uint256"
        },
        {
          "indexed": false,
          "internalType": "bytes32",
          "name": "root",
          "type": "bytes32"
        },
        {
          "indexed": true,
          "internalType": "address",
          "name": "token",
          "type": "address"
        },
        {
          "indexed": false,
          "internalType": "uint256",
          "name": "denomination",
          "type": "uint256"
        },
        {
          "indexed": false,
          "internalType": "uint256",
          "name": "totalKeys",
          "type": "uint256"
        }
      ],
      "name": "MerkleRootAdded",
      "type": "event"
    },
    {
      "anonymous": false,
      "inputs": [
        {
          "indexed": true,
          "internalType": "uint256",
          "name": "rootId",
          "type": "uint256"
        }
      ],
      "name": "MerkleRootDeactivated",
      "type": "event"
    },
    {
      "anonymous": false,
      "inputs": [
        {
          "indexed": true,
          "internalType": "address",
          "name": "previousOwner",
          "type": "address"
        },
        {
          "indexed": true,
          "internalType": "address",
          "name": "newOwner",
          "type": "address"
        }
      ],
      "name": "OwnershipTransferred",
      "type": "event"
    },
    {
      "anonymous": false,
      "inputs": [
        {
          "indexed": false,
          "internalType": "address",
          "name": "account",
          "type": "address"
        }
      ],
      "name": "Paused",
      "type": "event"
    },
    {
      "anonymous": false,
      "inputs": [
        {
          "indexed": true,
          "internalType": "address",
          "name": "token",
          "type": "address"
        },
        {
          "indexed": false,
          "internalType": "string",
          "name": "symbol",
          "type": "string"
        },
        {
          "indexed": false,
          "internalType": "uint8",
          "name": "decimals",
          "type": "uint8"
        },
        {
          "indexed": false,
          "internalType": "uint256[]",
          "name": "denominations",
          "type": "uint256[]"
        }
      ],
      "name": "TokenAdded",
      "type": "event"
    },
    {
      "anonymous": false,
      "inputs": [
        {
          "indexed": true,
          "internalType": "address",
          "name": "token",
          "type": "address"
        }
      ],
      "name": "TokenRemoved",
      "type": "event"
    },
    {
      "anonymous": false,
      "inputs": [
        {
          "indexed": false,
          "internalType": "address",
          "name": "account",
          "type": "address"
        }
      ],
      "name": "Unpaused",
      "type": "event"
    },
    {
      "anonymous": false,
      "inputs": [
        {
          "indexed": true,
          "internalType": "address",
          "name": "token",
          "type": "address"
        },
        {
          "indexed": true,
          "internalType": "address",
          "name": "recipient",
          "type": "address"
        },
        {
          "indexed": false,
          "internalType": "uint256",
          "name": "amount",
          "type": "uint256"
        },
        {
          "indexed": false,
          "internalType": "bytes32",
          "name": "nullifierHash",
          "type": "bytes32"
        },
        {
          "indexed": false,
          "internalType": "uint256",
          "name": "fee",
          "type": "uint256"
        },
        {
          "indexed": false,
          "internalType": "uint256",
          "name": "merkleRootId",
          "type": "uint256"
        }
      ],
      "name": "Withdrawal",
      "type": "event"
    },
    {
      "inputs": [
        {
          "internalType": "bytes32",
          "name": "root",
          "type": "bytes32"
        },
        {
          "internalType": "address",
          "name": "token",
          "type": "address"
        },
        {
          "internalType": "uint256",
          "name": "denomination",
          "type": "uint256"
        },
        {
          "internalType": "uint256",
          "name": "totalKeys",
          "type": "uint256"
        }
      ],
      "name": "addMerkleRoot",
      "outputs": [],
      "stateMutability": "nonpayable",
      "type": "function"
    },
    {
      "inputs": [
        {
          "internalType": "address",
          "name": "token",
          "type": "address"
        },
        {
          "internalType": "string",
          "name": "symbol",
          "type": "string"
        },
        {
          "internalType": "uint8",
          "name": "decimals",
          "type": "uint8"
        },
        {
          "internalType": "uint256[]",
          "name": "denominations",
          "type": "uint256[]"
        }
      ],
      "name": "addToken",
      "outputs": [],
      "stateMutability": "nonpayable",
      "type": "function"
    },
    {
      "inputs": [
        {
          "internalType": "bytes32[]",
          "name": "nullifierHashes",
          "type": "bytes32[]"
        }
      ],
      "name": "checkNullifiers",
      "outputs": [
        {
          "internalType": "bool[]",
          "name": "",
          "type": "bool[]"
        }
      ],
      "stateMutability": "view",
      "type": "function"
    },
    {
      "inputs": [
        {
          "internalType": "uint256",
          "name": "rootId",
          "type": "uint256"
        }
      ],
      "name": "deactivateMerkleRoot",
      "outputs": [],
      "stateMutability": "nonpayable",
      "type": "function"
    },
    {
      "inputs": [
        {
          "internalType": "address",
          "name": "token",
          "type": "address"
        },
        {
          "internalType": "uint256",
          "name": "amount",
          "type": "uint256"
        }
      ],
      "name": "deposit",
      "outputs": [],
      "stateMutability": "payable",
      "type": "function"
    },
    {
      "inputs": [
        {
          "internalType": "address",
          "name": "token",
          "type": "address"
        },
        {
          "internalType": "uint256",
          "name": "amount",
          "type": "uint256"
        }
      ],
      "name": "emergencyWithdraw",
      "outputs": [],
      "stateMutability": "nonpayable",
      "type": "function"
    },
    {
      "inputs": [
        {
          "internalType": "uint256",
          "name": "offset",
          "type": "uint256"
        },
        {
          "internalType": "uint256",
          "name": "limit",
          "type": "uint256"
        }
      ],
      "name": "getActiveMerkleRoots",
      "outputs": [
        {
          "components": [
            {
              "internalType": "bytes32",
              "name": "root",
              "type": "bytes32"
            },
            {
              "internalType": "address",
              "name": "token",
              "type": "address"
            },
            {
              "internalType": "uint256",
              "name": "denomination",
              "type": "uint256"
            },
            {
              "internalType": "uint256",
              "name": "timestamp",
              "type": "uint256"
            },
            {
              "internalType": "bool",
              "name": "isActive",
              "type": "bool"
            },
            {
              "internalType": "uint256",
              "name": "totalKeys",
              "type": "uint256"
            },
            {
              "internalType": "uint256",
              "name": "usedKeys",
              "type": "uint256"
            }
          ],
          "internalType": "struct MultiTokenTreasury.MerkleRootInfo[]",
          "name": "roots",
          "type": "tuple[]"
        },
        {
          "internalType": "uint256",
          "name": "total",
          "type": "uint256"
        }
      ],
      "stateMutability": "view",
      "type": "function"
    },
    {
      "inputs": [
        {
          "internalType": "bytes32",
          "name": "rootHash",
          "type": "bytes32"
        }
      ],
      "name": "getMerkleRootIdByHash",
      "outputs": [
        {
          "internalType": "bool",
          "name": "found",
          "type": "bool"
        },
        {
          "internalType": "uint256",
          "name": "rootId",
          "type": "uint256"
        }
      ],
      "stateMutability": "view",
      "type": "function"
    },
    {
      "inputs": [
        {
          "internalType": "address",
          "name": "token",
          "type": "address"
        },
        {
          "internalType": "uint256",
          "name": "denomination",
          "type": "uint256"
        }
      ],
      "name": "getMerkleRootsByTokenAndDenomination",
      "outputs": [
        {
          "internalType": "uint256[]",
          "name": "roots",
          "type": "uint256[]"
        }
      ],
      "stateMutability": "view",
      "type": "function"
    },
    {
      "inputs": [],
      "name": "getMerkleRootsCount",
      "outputs": [
        {
          "internalType": "uint256",
          "name": "",
          "type": "uint256"
        }
      ],
      "stateMutability": "view",
      "type": "function"
    },
    {
      "inputs": [],
      "name": "getSupportedTokens",
      "outputs": [
        {
          "internalType": "address[]",
          "name": "tokens",
          "type": "address[]"
        },
        {
          "internalType": "string[]",
          "name": "symbols",
          "type": "string[]"
        },
        {
          "internalType": "uint8[]",
          "name": "decimals",
          "type": "uint8[]"
        },
        {
          "internalType": "bool[]",
          "name": "active",
          "type": "bool[]"
        }
      ],
      "stateMutability": "view",
      "type": "function"
    },
    {
      "inputs": [
        {
          "internalType": "address",
          "name": "token",
          "type": "address"
        }
      ],
      "name": "getTokenDenominations",
      "outputs": [
        {
          "internalType": "uint256[]",
          "name": "",
          "type": "uint256[]"
        }
      ],
      "stateMutability": "view",
      "type": "function"
    },
    {
      "inputs": [
        {
          "internalType": "address",
          "name": "token",
          "type": "address"
        }
      ],
      "name": "getTokenStats",
      "outputs": [
        {
          "internalType": "uint256",
          "name": "deposited",
          "type": "uint256"
        },
        {
          "internalType": "uint256",
          "name": "withdrawn",
          "type": "uint256"
        },
        {
          "internalType": "uint256",
          "name": "balance",
          "type": "uint256"
        },
        {
          "internalType": "uint256",
          "name": "fees",
          "type": "uint256"
        }
      ],
      "stateMutability": "view",
      "type": "function"
    },
    {
      "inputs": [
        {
          "internalType": "address",
          "name": "token",
          "type": "address"
        }
      ],
      "name": "getWithdrawalCapacity",
      "outputs": [
        {
          "internalType": "uint256",
          "name": "available",
          "type": "uint256"
        },
        {
          "internalType": "uint256",
          "name": "percentAvailable",
          "type": "uint256"
        }
      ],
      "stateMutability": "view",
      "type": "function"
    },
    {
      "inputs": [
        {
          "internalType": "address",
          "name": "token",
          "type": "address"
        },
        {
          "internalType": "uint256",
          "name": "amount",
          "type": "uint256"
        }
      ],
      "name": "isValidDenomination",
      "outputs": [
        {
          "internalType": "bool",
          "name": "",
          "type": "bool"
        }
      ],
      "stateMutability": "view",
      "type": "function"
    },
    {
      "inputs": [
        {
          "internalType": "bytes32",
          "name": "",
          "type": "bytes32"
        }
      ],
      "name": "merkleRootToId",
      "outputs": [
        {
          "internalType": "uint256",
          "name": "",
          "type": "uint256"
        }
      ],
      "stateMutability": "view",
      "type": "function"
    },
    {
      "inputs": [
        {
          "internalType": "uint256",
          "name": "",
          "type": "uint256"
        }
      ],
      "name": "merkleRoots",
      "outputs": [
        {
          "internalType": "bytes32",
          "name": "root",
          "type": "bytes32"
        },
        {
          "internalType": "address",
          "name": "token",
          "type": "address"
        },
        {
          "internalType": "uint256",
          "name": "denomination",
          "type": "uint256"
        },
        {
          "internalType": "uint256",
          "name": "timestamp",
          "type": "uint256"
        },
        {
          "internalType": "bool",
          "name": "isActive",
          "type": "bool"
        },
        {
          "internalType": "uint256",
          "name": "totalKeys",
          "type": "uint256"
        },
        {
          "internalType": "uint256",
          "name": "usedKeys",
          "type": "uint256"
        }
      ],
      "stateMutability": "view",
      "type": "function"
    },
    {
      "inputs": [
        {
          "internalType": "bytes32",
          "name": "",
          "type": "bytes32"
        }
      ],
      "name": "nullifiers",
      "outputs": [
        {
          "internalType": "bool",
          "name": "",
          "type": "bool"
        }
      ],
      "stateMutability": "view",
      "type": "function"
    },
    {
      "inputs": [],
      "name": "owner",
      "outputs": [
        {
          "internalType": "address",
          "name": "",
          "type": "address"
        }
      ],
      "stateMutability": "view",
      "type": "function"
    },
    {
      "inputs": [],
      "name": "pause",
      "outputs": [],
      "stateMutability": "nonpayable",
      "type": "function"
    },
    {
      "inputs": [],
      "name": "paused",
      "outputs": [
        {
          "internalType": "bool",
          "name": "",
          "type": "bool"
        }
      ],
      "stateMutability": "view",
      "type": "function"
    },
    {
      "inputs": [
        {
          "internalType": "address",
          "name": "token",
          "type": "address"
        }
      ],
      "name": "removeToken",
      "outputs": [],
      "stateMutability": "nonpayable",
      "type": "function"
    },
    {
      "inputs": [],
      "name": "renounceOwnership",
      "outputs": [],
      "stateMutability": "nonpayable",
      "type": "function"
    },
    {
      "inputs": [
        {
          "internalType": "uint256",
          "name": "",
          "type": "uint256"
        }
      ],
      "name": "supportedTokens",
      "outputs": [
        {
          "internalType": "address",
          "name": "",
          "type": "address"
        }
      ],
      "stateMutability": "view",
      "type": "function"
    },
    {
      "inputs": [
        {
          "internalType": "address",
          "name": "",
          "type": "address"
        }
      ],
      "name": "tokenInfo",
      "outputs": [
        {
          "internalType": "string",
          "name": "symbol",
          "type": "string"
        },
        {
          "internalType": "uint8",
          "name": "decimals",
          "type": "uint8"
        },
        {
          "internalType": "bool",
          "name": "isActive",
          "type": "bool"
        }
      ],
      "stateMutability": "view",
      "type": "function"
    },
    {
      "inputs": [
        {
          "internalType": "address",
          "name": "",
          "type": "address"
        }
      ],
      "name": "totalDeposited",
      "outputs": [
        {
          "internalType": "uint256",
          "name": "",
          "type": "uint256"
        }
      ],
      "stateMutability": "view",
      "type": "function"
    },
    {
      "inputs": [
        {
          "internalType": "address",
          "name": "",
          "type": "address"
        }
      ],
      "name": "totalFeesCollected",
      "outputs": [
        {
          "internalType": "uint256",
          "name": "",
          "type": "uint256"
        }
      ],
      "stateMutability": "view",
      "type": "function"
    },
    {
      "inputs": [
        {
          "internalType": "address",
          "name": "",
          "type": "address"
        }
      ],
      "name": "totalWithdrawn",
      "outputs": [
        {
          "internalType": "uint256",
          "name": "",
          "type": "uint256"
        }
      ],
      "stateMutability": "view",
      "type": "function"
    },
    {
      "inputs": [
        {
          "internalType": "address",
          "name": "newOwner",
          "type": "address"
        }
      ],
      "name": "transferOwnership",
      "outputs": [],
      "stateMutability": "nonpayable",
      "type": "function"
    },
    {
      "inputs": [],
      "name": "unpause",
      "outputs": [],
      "stateMutability": "nonpayable",
      "type": "function"
    },
    {
      "inputs": [
        {
          "internalType": "address",
          "name": "token",
          "type": "address"
        },
        {
          "internalType": "address payable",
          "name": "recipient",
          "type": "address"
        },
        {
          "internalType": "uint256",
          "name": "amount",
          "type": "uint256"
        },
        {
          "internalType": "uint256",
          "name": "merkleRootId",
          "type": "uint256"
        },
        {
          "internalType": "bytes",
          "name": "signature",
          "type": "bytes"
        },
        {
          "internalType": "bytes32[]",
          "name": "merkleProof",
          "type": "bytes32[]"
        },
        {
          "internalType": "uint256",
          "name": "keyIndex",
          "type": "uint256"
        }
      ],
      "name": "withdraw",
      "outputs": [],
      "stateMutability": "nonpayable",
      "type": "function"
    },
    {
      "inputs": [
        {
          "internalType": "address",
          "name": "token",
          "type": "address"
        }
      ],
      "name": "withdrawFees",
      "outputs": [],
      "stateMutability": "nonpayable",
      "type": "function"
    },
    {
      "stateMutability": "payable",
      "type": "receive"
    }
  ],
  "bytecode": "0x6080346200051857601f6200329338819003918201601f19168301916001600160401b0383118484101762000383578084926020946040528339810103126200051857516001600160a01b038116810362000518576200007890620000643362000532565b6001805560ff196002541660025562000532565b60405160a081016001600160401b0381118282101762000383576040526004815260803660208301378051156200050257662386f26fc100006020820152805160011015620005025767016345785d8a0000604082015280516002101562000502576706f05b59d3b2000060608201528051600310156200050257670de0b6b3a7640000608082015260408051919082016001600160401b038111838210176200038357604052600382526208aa8960eb1b60208301526200013a81620005d4565b15620004f057604051608081016001600160401b03811182821017620003835760405282815260126020820152600160408201528160608201526000805260036020526040600020815180519060018060401b03821162000383578254600181811c91168015620004e5575b6020821014620004cf57601f81116200048d575b50602090601f831160011462000419579180606094926002946000926200040d575b50508160011b916000199060031b1c19161781555b6001810160ff60208601511681549061ff006040880151151560081b169161ffff191617179055019101519081519060018060401b0382116200038357680100000000000000009283831162000383576020908254848455808510620003ed575b500190600052602060002060005b838110620003d85750505050600090600091600454925b83811062000399575b50156200034e575b5050604051916060835280519081606085015260005b82811062000337575050600060808285010152601f80199101168201602060a06080830192601283870152608086820301604087015284518094520192019060005b818110620003205760007f0bb5b396beb5f05ba121e866f946d455c53e0dacd56c4b77181445c1702e338386860387a2604051612c0590816200068e8239f35b8251845260209384019390920191600101620002e0565b80602080928401015160808288010152016200029e565b8110156200038357806001620003689201600455620005b8565b81549060018060a01b039060031b1b19169055388062000288565b634e487b7160e01b600052604160045260246000fd5b620003a481620005b8565b905460039190911b1c6001600160a01b031615620003cd57620003c79062000592565b62000277565b505060013862000280565b60019060208451940193818401550162000260565b6200040690846000528584600020918201910162000579565b3862000252565b015190503880620001dc565b908360005260206000209160005b601f1985168110620004745750926060949260019260029583601f198116106200045a575b505050811b018155620001f1565b015160001960f88460031b161c191690553880806200044c565b9192602060018192868501518155019401920162000427565b620004bd90846000526020600020601f850160051c81019160208610620004c4575b601f0160051c019062000579565b38620001ba565b9091508190620004af565b634e487b7160e01b600052602260045260246000fd5b90607f1690620001a6565b6040516303ff3dd760e11b8152600490fd5b634e487b7160e01b600052603260045260246000fd5b600080fd5b8051821015620005025760209160051b010190565b600080546001600160a01b039283166001600160a01b03198216811783559216907f8be0079c531659141344cd1fd0a4f28419497f9722a3daafe3b4186f6b6457e09080a3565b81811062000585575050565b6000815560010162000579565b6000198114620005a25760010190565b634e487b7160e01b600052601160045260246000fd5b6004548110156200050257600460005260206000200190600090565b805115620006875760005b81518110156200068057620005f581836200051d565b511562000679576001808201808311620005a257815b62000624575b50506200061e9062000592565b620005df565b83919293518110156200066f576200063d84836200051d565b516200064a82846200051d565b511462000666576200065c9062000592565b829193926200060b565b50505050600090565b8193925062000611565b5050600090565b5050600190565b5060009056fe6080604052600436101561001b575b361561001957600080fd5b005b60e0600035811c908163011eb97614611e175781630a64143a14611ddd5781630d0bd8d414611db15781630e20799f14611d4f578163164e68de14611c235781632997e86b14611bf25781632dccb16014611bbb5781632f4891051461164c5781633b3cc7f9146114bb5781633f4ba83a146114645781634526d25b146113cb57816347e7ef24146111c5578163530554811461118b5781635c975abb146111685781635fa7b584146110ce578163715018a61461108757816371c5ecb1146110085750806372379bd114610db75780637a26c4eb14610cd55780638456cb5914610c7b57806388a40eed14610c415780638da5cb5b14610c1857806395ccea6714610b5c578063c625562614610b1a578063ca88d5c514610aaa578063cc1f5efb14610a8c578063d3c7c2c714610838578063decc487e14610363578063e18342d014610337578063e6dddb6d146102a5578063f2fde38b146101f65763f5dab7110361000e57346101f15760203660031901126101f1576001600160a01b036101a46120b1565b1660005260036020526101d9604060002060016101c0826122f3565b91015460ff604051938493606085526060850190612279565b91818116602085015260081c16151560408301520390f35b600080fd5b346101f15760203660031901126101f15761020f6120b1565b610217612399565b6001600160a01b03908116908115610251576000548260018060a01b031982161760005516600080516020612bb0833981519152600080a3005b60405162461bcd60e51b815260206004820152602660248201527f4f776e61626c653a206e6577206f776e657220697320746865207a65726f206160448201526564647265737360d01b6064820152608490fd5b346101f1576020806003193601126101f1576001600160a01b036102c76120b1565b1660005260038152600260406000200190604051808383829554938481520190600052836000209260005b858282106103215750505061030992500383612133565b61031d6040519282849384528301906121a8565b0390f35b85548452600195860195889550930192016102f2565b346101f15760203660031901126101f15760043560005260066020526020604060002054604051908152f35b346101f15760803660031901126101f15761037c6120b1565b6024356001600160401b0381116101f157366023820112156101f1576103ac903690602481600401359101612171565b6044359060ff821682036101f157606435926001600160401b0384116101f157366023850112156101f1578360040135936103e685612211565b946103f46040519687612133565b8086526024602087019160051b830101913683116101f157602401905b82821061082857505050610423612399565b61042c84612ad3565b15610816576001600160a01b03811661075a575b604051608081016001600160401b0381118282101761061f5760405282815260ff841660208201526001604082015284606082015260018060a01b0382166000526003602052604060002090805180519060018060401b03821161061f576104a884546122b9565b601f811161071d575b50602090601f83116001146106b0576060939291600091836106a5575b50508160011b916000199060031b1c19161783555b6001830160ff60208301511681549061ff006040850151151560081b169161ffff19161717905501519081519160018060401b03831161061f57600160401b831161061f576020600291828401548584860155808610610686575b50019101600052602060002060005b8381106106725750505050600080600454915b828110610635575b50156105c1575b50906105bc600080516020612b708339815191529361059e9360ff604051958695606087526060870190612279565b9216602085015283820360408501526001600160a01b0316956121a8565b0390a2005b909190600160401b81101561061f57600080516020612b708339815191529361059e936105f78360016105bc950160045561225e565b81546001600160a01b0384811660039390931b92831b921b191617905590945091925061056f565b634e487b7160e01b600052604160045260246000fd5b61063e8161225e565b905460039190911b1c6001600160a01b03908116908516146106685761066390612408565b610560565b5050600186610568565b60019060208451940193818401550161054d565b61069f90848601600052868460002091820191016123f1565b8961053e565b0151905089806104ce565b908460005260206000209160005b601f1985168110610705575091839160019360609695601f198116106106ec575b505050811b0183556104e3565b015160001960f88460031b161c191690558980806106df565b919260206001819286850151815501940192016106be565b61074a90856000526020600020601f850160051c81019160208610610750575b601f0160051c01906123f1565b886104b1565b909150819061073d565b60405163313ce56760e01b81526020816004816001600160a01b0386165afa90811561080a576000916107ce575b5060ff808516911603156104405760405162461bcd60e51b815260206004820152601060248201526f088cac6d2dac2d840dad2e6dac2e8c6d60831b6044820152606490fd5b90506020813d602011610802575b816107e960209383612133565b810103126101f1575160ff811681036101f15785610788565b3d91506107dc565b6040513d6000823e3d90fd5b6040516303ff3dd760e11b8152600490fd5b8135815260209182019101610411565b346101f15760003660031901126101f15760045461085581612211565b6108626040519182612133565b81815261086e82612211565b9060209182820193601f1980920136863761088881612211565b6108956040519182612133565b818152826108a283612211565b0160005b818110610a7d5750506108b882612211565b6108c56040519182612133565b8281526108d183612211565b938087830195013686376108e4846126bb565b9360005b8181106109e75750506040519788966080880190608089525180915260a08801919060005b8181106109c7575050508681038888015283519081815288810189808460051b8401019601936000925b84841061098e5750505050505085908583036040870152519182815201929460005b82811061097457858061031d87878382036060850152612228565b865160ff1685529581019587955093810193600101610959565b919395968b80999b506109b1828460019597999d9f948790030188528c51612279565b9a0194019401918b99979a989695939491610937565b82516001600160a01b031684528b9950928a0192918a019160010161090d565b806001896109ff610a70949d97989a9c999b9d61225e565b905490600391848060a01b0391831b1c1690816000528a52610a26846040600020936126a7565b52610a30816122f3565b610a3a848c6126a7565b52610a45838b6126a7565b50015460ff808216610a57848a6126a7565b52610a62838c6126a7565b9160081c1615159052612408565b98969497959392986108e8565b606083820188015286016108a6565b346101f15760003660031901126101f1576020600554604051908152f35b346101f15760203660031901126101f1576080610ac56120b1565b60018060a01b03811690816000526008602052604060002054916009602052610af360406000205492612a5f565b90600052600a60205260406000205491604051938452602084015260408301526060820152f35b346101f15760203660031901126101f1576004356004548110156101f157610b4360209161225e565b905460405160039290921b1c6001600160a01b03168152f35b346101f15760403660031901126101f157610b756120b1565b60243590610b81612399565b610b89612829565b6001600160a01b0390811680610bb75750600080806100199481948254165af1610bb16127b7565b506127e7565b91610be19260209260005416600060405180968195829463a9059cbb60e01b84526004840161279c565b03925af1801561080a57610bf157005b6100199060203d8111610c11575b610c098183612133565b810190612784565b503d610bff565b346101f15760003660031901126101f1576000546040516001600160a01b039091168152602090f35b346101f15760203660031901126101f1576001600160a01b03610c626120b1565b16600052600a6020526020604060002054604051908152f35b346101f15760003660031901126101f157610c94612399565b610c9c612431565b600160ff1960025416176002557f62e78cea01bee320cd4e420270b5ea74000d11b0c9f74754ebdbfc544b05a2586020604051338152a1005b346101f1576020806003193601126101f1576004356001600160401b0381116101f157366023820112156101f1578060040135610d1181612211565b91610d1f6040519384612133565b81835260248484019260051b820101913683116101f1576024859201905b838210610da8578285610d5081516126bb565b9160005b8251811015610d955780610d6b610d9092856126a7565b516000526007835260ff60406000205416610d8682876126a7565b9015159052612408565b610d54565b6040518281528061031d81850187612228565b81358152908201908201610d3d565b346101f15760803660031901126101f1576001600160a01b036024803582811692600435918490036101f15760443560643591610df2612399565b600554946064861015610fcc578660005260209160038352604060002060ff600182015460081c1615610f925784610e2991612872565b15610f4e5760405190610e3b826120c7565b86825283820189815260408301868152606084019042825260808501926001845260a08601948a865260c0870196600088528d600160401b1115610f3957610e898e600181016005556121dc565b999099610f255750926006959260609c9a9895927fd7d06387b28a46fbcb4300431eb1fc44e4dbec163e13e4f60d22b505f788ece89e9c9a98955189556001890191511660018060a01b0319825416179055516002870155516003860155600485019051151560ff80198354169116179055516005840155519101558360005260068152866040600020556040519384528301526040820152a3005b634e487b7160e01b60005260006004526000fd5b88634e487b7160e01b60005260416004526000fd5b60405162461bcd60e51b815260048101849052601e818401527f496e76616c69642064656e6f6d696e6174696f6e20666f7220746f6b656e00006044820152606490fd5b60405162461bcd60e51b81526004810185905260138185015272151bdad95b881b9bdd081cdd5c1c1bdc9d1959606a1b6044820152606490fd5b60649060156040519162461bcd60e51b83526020600484015282015274546f6f206d616e79206d65726b6c6520726f6f747360581b6044820152fd5b346101f15760203660031901126101f1576004356005548110156101f15761102f906121dc565b5080549060018060a01b03600182015416906002810154600382015460ff6004840154169160066005850154940154946040519687526020870152604086015260608501521515608084015260a083015260c0820152f35b346101f15760003660031901126101f1576110a0612399565b600080546001600160a01b0319811682556001600160a01b0316600080516020612bb08339815191528280a3005b346101f15760203660031901126101f1576110e76120b1565b6110ef612399565b6001600160a01b031660008181526003602052604090206001015460081c60ff161561115657806000526003602052600160406000200161ff001981541690557f4c910b69fe65a61f7531b9c5042b2329ca7179c77290aa7e2eb3afa3c8511fd3600080a2005b604051633dd1b30560e01b8152600490fd5b346101f15760003660031901126101f157602060ff600254166040519015158152f35b346101f15760203660031901126101f1576001600160a01b036111ac6120b1565b1660005260086020526020604060002054604051908152f35b60403660031901126101f1576111d96120b1565b6024918235906111e7612431565b60018060a01b038316928360005260209060038252604060002060ff600182015460081c1615611156578461121b91612872565b156113b95784611338578334036112fd575b84600052600882526040600020611245858254612417565b905560001943014381116112e857604051928301913360601b835260018060601b03199060601b1660348401528460488401524260688401524060888301526088825260c082019582871060018060401b038811176112d45750856040528151902092855201527f76bb911c362d5b1feb3058bc7dc9354703e4b6eb9c61cc845f73da880cf62f6160403393a3005b634e487b7160e01b60009081526041600452fd5b86634e487b7160e01b60005260116004526000fd5b60405162461bcd60e51b81526004810183905260148188015273125b98dbdc9c9958dd0811551208185b5bdd5b9d60621b6044820152606490fd5b34611378576113736040516323b872dd60e01b8482015233888201523060448201528560648201526064815261136d816120fd565b866128dc565b61122d565b60405162461bcd60e51b815260048101839052601a8188015279115512081cd95b9d08199bdc881d1bdad95b8819195c1bdcda5d60321b6044820152606490fd5b604051637833d9e360e11b8152600490fd5b346101f15760203660031901126101f1576004356113e7612399565b60055481101561142d5760046113fc826121dc565b5001805460ff191690557f6a78c0f3eb0b7c8b663ac4293ce924242c5fe0605bf7fe291219b5884dfdd588600080a2005b60405162461bcd60e51b815260206004820152600f60248201526e125b9d985b1a59081c9bdbdd081251608a1b6044820152606490fd5b346101f15760003660031901126101f15761147d612399565b611485612829565b60ff19600254166002557f5db9ee0a495bf2e6ff9c91a7834c1ba4fdd244a5e8aa4e537bd38aeae4b073aa6020604051338152a1005b346101f15760403660031901126101f1576114d46120b1565b6005546024356000805b8381106115cf57506114ef81612211565b916114fd6040519384612133565b818352601f1961150c83612211565b0136602085013760009160005b858110806115c6575b156115b05760ff6004611534836121dc565b500154168061158e575b80611578575b611557575b61155290612408565b611519565b92611570818561156a61155294896126a7565b52612408565b939050611549565b50826002611585836121dc565b50015414611544565b50600161159a826121dc565b50818060a01b039182910154169088161461153e565b6040516020808252819061031d908201886121a8565b50818410611522565b60ff60046115dc836121dc565b500154168061162a575b80611614575b6115ff575b6115fa90612408565b6114de565b9061160c6115fa91612408565b9190506115f1565b50826002611621836121dc565b500154146115ec565b506001611636826121dc565b50818060a01b03918291015416908616146115e6565b346101f1573660031901126101f1576116636120b1565b6001600160a01b0360243580821690036101f1576001600160401b03906084358281116101f157366023820112156101f1576116a9903690602481600401359101612171565b918060a435116101f15736602360a4350112156101f15760a43560040135116101f15736602460a4356004013560051b60a4350101116101f157600260015414611b765760026001556116fa612431565b8083166000526003602052604060002060ff600182015460081c1615611156576117279060443590612872565b156113b9576005546064351015611b64576117436064356121dc565b5060ff60048201541615611b64578184168260018301541603611b2257604435600282015403611ad35761177684612a5f565b848316611aca5767016345785d8a00006044350180604435116119d757905b10611ab8576040516020810190606435825260c4356040820152604081526117bc816120e2565b5190209283600052600760205260ff60406000205416611aa65761185990611851604051916020830160018060601b0319938460243560601b168252848a60601b16603482015260443560488201524660688201526068815261181e816120fd565b5190207b0ca2ba3432b932bab69029b4b3b732b21026b2b9b9b0b3b29d05199960211b600052601c52603c60002061258a565b929092612475565b60405190602082019260601b1682526014815261187581612118565b51902081549060c43560005b60a435600401358110611a31575050036119f5576006908360005260076020526040600020600160ff19825416179055016118bc8154612408565b905560008184166119ed575b6044358082029181159183041417156119d7577f4dd14a1ba4ada6d6871b62ffa4e5c1c3339efac4939d2e2390b6f6618981aaaf916127106080920461191081604435612424565b948287166000526009602052604060002061192e6044358254612417565b9055828716600052600a602052604060002061194b838254612417565b90558683166119935761196c60008080808a88602435165af1610bb16127b7565b6040519586526020860152604085015260643560608501528060243516941692a360018055005b6119d260405163a9059cbb60e01b60208201526119ca816119bc8a88602435166024840161279c565b03601f198101835282612133565b8489166128dc565b61196c565b634e487b7160e01b600052601160045260246000fd5b50600a6118c8565b60405162461bcd60e51b815260206004820152601460248201527324b73b30b634b21036b2b935b63290383937b7b360611b6044820152606490fd5b9091611a7a9060248360051b60a4350101356001851615600014611a7f576040519060208201928352604082015260408152611a6c816120e2565b519020925b60011c91612408565b611881565b906040519060208201928352604082015260408152611a9d816120e2565b51902092611a71565b604051636569570160e11b8152600490fd5b60405163bb55fd2760e01b8152600490fd5b60443590611795565b60405162461bcd60e51b815260206004820152602160248201527f4d65726b6c6520726f6f742064656e6f6d696e6174696f6e206d69736d6174636044820152600d60fb1b6064820152608490fd5b60405162461bcd60e51b815260206004820152601a60248201527909acae4d6d8ca40e4dedee840e8ded6cadc40dad2e6dac2e8c6d60331b6044820152606490fd5b604051639dd854d360e01b8152600490fd5b60405162461bcd60e51b815260206004820152601f60248201527f5265656e7472616e637947756172643a207265656e7472616e742063616c6c006044820152606490fd5b346101f15760203660031901126101f1576040611be6611be1611bdc6120b1565b612a5f565b6126ed565b82519182526020820152f35b346101f15760203660031901126101f1576004356000526007602052602060ff604060002054166040519015158152f35b346101f1576020806003193601126101f157611c3d6120b1565b611c45612399565b6001600160a01b039081166000818152600a845260409020549092908015611d14576000848152600a8352604081205583611ca957611ca0600080808085600080516020612b90833981519152988254165af1610bb16127b7565b604051908152a2005b8181611cce9460005416604051958692839263a9059cbb60e01b84526004840161279c565b03816000885af192831561080a57600080516020612b9083398151915293611cf7575b50611ca0565b611d0d90833d8511610c1157610c098183612133565b5084611cf1565b60405162461bcd60e51b81526004810183905260136024820152724e6f206665657320746f20776974686472617760681b6044820152606490fd5b346101f15760403660031901126101f1576001600160a01b03611d706120b1565b1660005260036020526020604060002060ff600182015460081c169081611d9d575b506040519015158152f35b611dab915060243590612872565b82611d92565b346101f15760203660031901126101f1576040611dcf600435612647565b825191151582526020820152f35b346101f15760203660031901126101f1576001600160a01b03611dfe6120b1565b1660005260096020526020604060002054604051908152f35b346101f15760403660031901126101f157600580549091600435906000602435815b858110612078575081611e4c8286612417565b11612059575b611e5b81612211565b91611e696040519384612133565b818352601f19611e7883612211565b0160005b81811061201157505060009360009260005b88811080612008575b15611f76576004611ea7826121dc565b50015460ff908116611ec3575b50611ebe90612408565b611e8e565b8a898993991015611ee4575b5050611edd611ebe91612408565b9690611eb4565b611ebe9296611edd926006611f6d93611efc8d6121dc565b509060405193611f0b856120c7565b8254855260018301546001600160a01b0316602086015260028301546040860152600383015460608601526004830154161515608085015281015460a0840152015460c0820152611f5c828b6126a7565b52611f67818a6126a7565b50612408565b9591508a611ecf565b604080518181528751918101829052606091828201908790602090818c019060008a5b828210611fac5787808888888301520390f35b835180518852808601516001600160a01b03168689015260408082015190890152898101518a89015260808082015115159089015260a0808201519089015260c090810151908801529586019592840192600190910190611f99565b50818510611e97565b602090604051612020816120c7565b6000815282600081830152600060408301526000606083015260006080830152600060a0830152600060c0830152828801015201611e7c565b50828111156120715761206c8382612424565b611e52565b6000611e52565b60ff6004612085836121dc565b5001541661209c575b61209790612408565b611e39565b916120a961209791612408565b92905061208e565b600435906001600160a01b03821682036101f157565b60e081019081106001600160401b0382111761061f57604052565b606081019081106001600160401b0382111761061f57604052565b60a081019081106001600160401b0382111761061f57604052565b604081019081106001600160401b0382111761061f57604052565b601f909101601f19168101906001600160401b0382119082101761061f57604052565b6001600160401b03811161061f57601f01601f191660200190565b92919261217d82612156565b9161218b6040519384612133565b8294818452818301116101f1578281602093846000960137010152565b90815180825260208080930193019160005b8281106121c8575050505090565b8351855293810193928101926001016121ba565b6005548110156121fb5760056000526007602060002091020190600090565b634e487b7160e01b600052603260045260246000fd5b6001600160401b03811161061f5760051b60200190565b90815180825260208080930193019160005b828110612248575050505090565b835115158552938101939281019260010161223a565b6004548110156121fb57600460005260206000200190600090565b919082519283825260005b8481106122a5575050826000602080949584010152601f8019910116010190565b602081830181015184830182015201612284565b90600182811c921680156122e9575b60208310146122d357565b634e487b7160e01b600052602260045260246000fd5b91607f16916122c8565b9060405191826000825492612307846122b9565b9081845260019485811690816000146123765750600114612333575b505061233192500383612133565b565b9093915060005260209081600020936000915b81831061235e57505061233193508201013880612323565b85548884018501529485019487945091830191612346565b91505061233194506020925060ff191682840152151560051b8201013880612323565b6000546001600160a01b031633036123ad57565b606460405162461bcd60e51b815260206004820152602060248201527f4f776e61626c653a2063616c6c6572206973206e6f7420746865206f776e65726044820152fd5b8181106123fc575050565b600081556001016123f1565b60001981146119d75760010190565b919082018092116119d757565b919082039182116119d757565b60ff6002541661243d57565b60405162461bcd60e51b815260206004820152601060248201526f14185d5cd8589b194e881c185d5cd95960821b6044820152606490fd5b600581101561257457806124865750565b600181036124ce5760405162461bcd60e51b815260206004820152601860248201527745434453413a20696e76616c6964207369676e617475726560401b6044820152606490fd5b6002810361251b5760405162461bcd60e51b815260206004820152601f60248201527f45434453413a20696e76616c6964207369676e6174757265206c656e677468006044820152606490fd5b60031461252457565b60405162461bcd60e51b815260206004820152602260248201527f45434453413a20696e76616c6964207369676e6174757265202773272076616c604482015261756560f01b6064820152608490fd5b634e487b7160e01b600052602160045260246000fd5b9060418151146000146125b8576125b4916020820151906060604084015193015160001a906125c2565b9091565b5050600090600290565b9291906fa2a8918ca85bafe22016d0b997e4df60600160ff1b03831161263b5791608094939160ff602094604051948552168484015260408301526060820152600093849182805260015afa1561262e5781516001600160a01b03811615612628579190565b50600190565b50604051903d90823e3d90fd5b50505050600090600390565b600554919060005b8381106126625750509050600090600090565b8161266c826121dc565b50541480612690575b6126875761268290612408565b61264f565b92505060019190565b5060ff600461269e836121dc565b50015416612675565b80518210156121fb5760209160051b010190565b906126c582612211565b6126d26040519182612133565b82815280926126e3601f1991612211565b0190602036910137565b9067016345785d8a000082111561277c5767016345785d89ffff198201918083116119d7578261232880830291831591848404148217156119d757612710809304809111612774575b5060008161276d57508185029185830414851517156119d757612757570490565b634e487b7160e01b600052601260045260246000fd5b9250505090565b945038612736565b600091508190565b908160209103126101f1575180151581036101f15790565b6001600160a01b039091168152602081019190915260400190565b3d156127e2573d906127c882612156565b916127d66040519384612133565b82523d6000602084013e565b606090565b156127ee57565b60405162461bcd60e51b8152602060048201526013602482015272115512081d1c985b9cd9995c8819985a5b1959606a1b6044820152606490fd5b60ff600254161561283657565b60405162461bcd60e51b815260206004820152601460248201527314185d5cd8589b194e881b9bdd081c185d5cd95960621b6044820152606490fd5b60019160ff8383015460081c16156128d457600091835b612897575b50505050600090565b600281019283548110156128ce578493600052828160206000200154146128c7576128c190612408565b92612889565b5050505090565b5061288e565b505050600090565b60405161293a916001600160a01b03166128f582612118565b6000806020958685527f5361666545524332303a206c6f772d6c6576656c2063616c6c206661696c656487860152868151910182855af16129346127b7565b916129c2565b8051908282159283156129aa575b505050156129535750565b6084906040519062461bcd60e51b82526004820152602a60248201527f5361666545524332303a204552433230206f7065726174696f6e20646964206e6044820152691bdd081cdd58d8d9595960b21b6064820152fd5b6129ba9350820181019101612784565b388281612948565b91929015612a2457508151156129d6575090565b3b156129df5790565b60405162461bcd60e51b815260206004820152601d60248201527f416464726573733a2063616c6c20746f206e6f6e2d636f6e74726163740000006044820152606490fd5b825190915015612a375750805190602001fd5b60405162461bcd60e51b815260206004820152908190612a5b906024830190612279565b0390fd5b6001600160a01b031680612a7257504790565b6020602491604051928380926370a0823160e01b82523060048301525afa90811561080a57600091612aa2575090565b906020823d8211612acb575b81612abb60209383612133565b81010312612ac857505190565b80fd5b3d9150612aae565b805115612b695760005b8151811015612b6257612af081836126a7565b5115612b5b5760018082018083116119d757815b612b19575b5050612b1490612408565b612add565b8391929351811015612b5257612b2f84836126a7565b51612b3a82846126a7565b511461288e57612b4990612408565b82919392612b04565b81939250612b09565b5050600090565b5050600190565b5060009056fe0bb5b396beb5f05ba121e866f946d455c53e0dacd56c4b77181445c1702e3383c0819c13be868895eb93e40eaceb96de976442fa1d404e5c55f14bb65a8c489a8be0079c531659141344cd1fd0a4f28419497f9722a3daafe3b4186f6b6457e0a2646970667358221220bf7bc0058dd3fe9e637a1e4262d9406902875e9780108d49c65443ed170baae164736f6c63430008130033",
  "linkReferences": {},
  "deployedLinkReferences": {}
}